:100000000C946A000C9492000C9492000C94920050
:100010000C9492000C9492000C9492000C94920018
:100020000C9492000C9492000C9492000C94920008
:100030000C9492000C94B1020C9492000C949200D7
:100040000C9467020C9492000C9499010C94730127
:100050000C9492000C9492000C9492000C949200D8
:100060000C9492000C94920038063B0641064D0613
:10007000440647063E064A0600000000230026000C
:10008000290000000000240027002A0000000000D2
:10009000250028002B0004040404040404040202C4
:1000A00002020202030303030303010204081020F7
:1000B0004080010204081020010204081020000002
:1000C0000008000201000003040700000000000017
:1000D0000000BD0711241FBECFEFD8E0DEBFCDBFAB
:1000E00022E0AEE8B1E001C01D92A03FB207E1F707
:1000F00011E0A0E0B1E0ECEFF0E102C005900D925C
:10010000AE38B107D9F710E0CAE6D0E004C02197B5
:10011000FE010E947108C936D107C9F70E94230465
:100120000C947C080C940000089580E090E0089501
:10013000FC01538D448D252F30E0842F90E0821BED
:10014000930B541710F0CF96089501970895FC0172
:10015000918D828D981761F0828DDF01A80FB11DFE
:100160005D968C91928D9F5F9F73928F90E0089522
:100170008FEF9FEF0895FC01918D828D981731F0DC
:10018000828DE80FF11D858D90E008958FEF9FEF30
:100190000895FC01918D228D892F90E0805C9F4F06
:1001A000821B91098F739927089583EB91E00E9438
:1001B000C90021E0892B09F420E0822F0895FC0179
:1001C000848DDF01A80FB11DA35ABF4F2C91848DE0
:1001D00090E001968F739927848FA689B7892C9315
:1001E000A089B1898C9180648C93938D848D9813B0
:1001F00006C00288F389E02D80818F7D8083089579
:10020000EF92FF920F931F93CF93DF93EC0181E066
:10021000888F9B8D8C8D981305C0E889F989808122
:1002200085FD24C0F62E0B8D10E00F5F1F4F0F735E
:100230001127E02E8C8DE8120CC00FB607FCFACF08
:10024000E889F989808185FFF5CFCE010E94DF0022
:10025000F1CF8B8DFE01E80FF11DE35AFF4FF082C5
:100260000B8FEA89FB898081806207C0EE89FF8954
:100270006083E889F98980818064808381E090E0EF
:10028000DF91CF911F910F91FF90EF900895CF9341
:10029000DF93EC01888D8823C9F0EA89FB8980818E
:1002A00085FD05C0A889B9898C9186FD0FC00FB660
:1002B00007FCF5CF808185FFF2CFA889B9898C91A1
:1002C00085FFEDCFCE010E94DF00E7CFDF91CF9118
:1002D000089580E090E0892B29F00E94D5008111DB
:1002E0000C94000008951F920F920FB60F921124E4
:1002F0002F933F934F935F936F937F938F939F932E
:10030000AF93BF93EF93FF9383EB91E00E94DF00E5
:10031000FF91EF91BF91AF919F918F917F916F91DD
:100320005F914F913F912F910F900FBE0F901F90B3
:1003300018951F920F920FB60F9211242F938F933F
:100340009F93EF93FF93E091C301F091C4018081EB
:10035000E091C901F091CA0182FD12C090818091A3
:10036000CC018F5F8F732091CD01821751F0E09106
:10037000CC01F0E0ED54FE4F958F8093CC0101C08D
:100380008081FF91EF919F918F912F910F900FBEE0
:100390000F901F901895833081F028F4813099F0E8
:1003A0008230A1F008958730A9F08830B9F0843008
:1003B000D1F4809180008F7D03C0809180008F7781
:1003C00080938000089584B58F7702C084B58F7DB7
:1003D00084BD08958091B0008F7703C08091B000F4
:1003E0008F7D8093B0000895CF93DF93FC0121852A
:1003F00030E0F901E254FF4F8491F901E655FF4FD7
:10040000D491F901EA56FF4FC491CC2379F08111C0
:100410000E94CB01EC2FF0E0EE0FFF1FE858FF4FDA
:10042000A591B491EC91ED2381E009F480E0817015
:10043000DF91CF910895CF93DF9390E0FC01E655D3
:10044000FF4F2491FC01EA56FF4F8491882361F10C
:1004500090E0880F991FFC01EE57FF4FC591D49192
:10046000FC01E457FF4FA591B491611109C09FB7FA
:10047000F8948881209582238883EC912E230BC0E9
:10048000623061F49FB7F8943881822F809583237E
:100490008883EC912E2B2C939FBF06C08FB7F894C6
:1004A000E8812E2B28838FBFDF91CF910895862F6F
:1004B000642F0C941B022FB7F8946091AF017091D8
:1004C000B0018091B1019091B2012FBF08951F92A8
:1004D0000F920FB60F9211242F933F938F939F93F8
:1004E000AF93BF938091AF019091B001A091B10102
:1004F000B091B2013091AE0123E0230F2D3720F4EB
:100500000196A11DB11D05C026E8230F0296A11D6D
:10051000B11D2093AE018093AF019093B001A093E1
:10052000B101B093B20180918E0190918F01A091A1
:100530009001B09191010196A11DB11D80938E0192
:1005400090938F01A0939001B0939101BF91AF91CF
:100550009F918F913F912F910F900FBE0F901F9001
:1005600018951F920F920FB60F9211242F933F935D
:100570004F935F936F937F938F939F93AF93BF93AB
:10058000EF93FF938091AC019091AD019093850022
:1005900080938400E091AA01F091AB010995FF914D
:1005A000EF91BF91AF919F918F917F916F915F91EB
:1005B0004F913F912F910F900FBE0F901F90189564
:1005C0008091A901811104C05F9881E08093A90105
:1005D000289A299A83EC90E00197F1F72998809165
:1005E00092019091930101969093930180939201CF
:1005F00008958091A901811104C05F9881E08093E2
:10060000A9012898299A83EC90E00197F1F729989D
:10061000809192019091930101979093930180931F
:10062000920108956F927F928F929F92BF92CF9284
:10063000DF92EF92FF920F931F93CF93DF93EC0122
:100640006A017B011E828C898B7F8C8BEC85FD85FA
:100650000190F081E02DCE010C960995B82E8C8981
:1006600086958170B81651F00E945B026E877F8775
:10067000888B998B9C8982E0892723C00E945B022A
:100680000E851F85288939893B014C01601A710A42
:10069000820A930A4A895B8960E070E064167506F5
:1006A0008606970678F09C899170B91659F00E94D9
:1006B0005B026E877F87888B998B9C8981E0892775
:1006C00084608C8B9C818C89911101C08095817094
:1006D0008D839F818D81911109C08823C9F081E0AC
:1006E0008F83188619861A861B8612C0882369F0A4
:1006F00088859985AA85BB85C80ED91EEA1EFB1E72
:10070000C886D986EA86FB8603C081E08E831F8275
:10071000DF91CF911F910F91FF90EF90DF90CF90DD
:10072000BF909F908F907F906F900895CF93DF93AD
:10073000EC0188810E941B0288818D8B1C8AEC85CC
:10074000FD850190F081E02DCE010C96099588235E
:1007500019F08C8983608C8B0E945B026E877F8787
:10076000888B998B8A819B819B8B8A8BDF91CF9120
:100770000895CF92DF92EF92FF920F931F93CF9342
:10078000DF936C017A018B01C0E0D0E0CE15DF056C
:1007900089F0D8016D918D01D601ED91FC91019008
:1007A000F081E02DC6010995892B11F47E0102C06C
:1007B0002196ECCFC701DF91CF911F910F91FF9050
:1007C000EF90DF90CF9008950E947708CF93DF934A
:1007D000282F30E0F901E254FF4F8491F901E655EA
:1007E000FF4FD491F901EA56FF4FC491CC2399F001
:1007F00081110E94CB01EC2FF0E0EE0FFF1FE457B8
:10080000FF4FA591B4918FB7F8949C91ED2FE0958F
:10081000E923EC938FBFDF91CF91089561157105A6
:1008200079F0FB0101900020E9F73197AF01461BF9
:10083000570BDC01ED91FC910280F381E02D0994CE
:1008400080E090E00895789484B5826084BD84B59A
:10085000816084BD85B5826085BD85B5816085BDBB
:1008600080916E00816080936E0010928100809173
:1008700081008260809381008091810081608093FB
:100880008100809180008160809380008091B10020
:1008900084608093B1008091B00081608093B0004B
:1008A00080917A00846080937A0080917A008260DF
:1008B00080937A0080917A00816080937A008091A1
:1008C0007A00806880937A001092C100109294029E
:1008D0001092950210929602109297021092520274
:1008E0001092530210925402109255020E945B0221
:1008F0006B017C012B013C0128EB420E2BE0521EC8
:10090000611C711C0E945B026C157D058E059F05A4
:1009100028F04616570668067906A0F783EB91E0A3
:100920009093930280939202E091C301F091C401ED
:1009300082E08083E091BF01F091C0011082E091DC
:10094000C101F091C20180E180831092CB01E0915E
:10095000C701F091C80186E08083E091C501F09164
:10096000C601808180618083E091C501F091C6015C
:10097000808188608083E091C501F091C60180810B
:1009800080688083E091C501F091C60180818F7DF0
:1009900080830E945B0260935202709353028093A3
:1009A0005402909355026CE171E080919202909113
:1009B00093020E940E040E945B026B017C012B01DA
:1009C0003C014AE0440E511C611C711C0E945B02F8
:1009D0006C157D058E059F0528F04616570668069E
:1009E0007906A0F7C1E0C0936602E091C301F091DF
:1009F000C40182E08083E091BF01F091C0011082C8
:100A0000E091C101F091C2018FEC80831092CB0183
:100A1000E091C701F091C80186E08083E091C501B3
:100A2000F091C601808180618083E091C501F091E1
:100A3000C601808188608083E091C501F091C60184
:100A4000808180688083E091C501F091C60180813A
:100A50008F7D808310929C0110929B0110929A01CD
:100A600061E087E00E941B0287E00E94E60361E0EC
:100A700089E00E941B0289E00E94E60361E088E0B1
:100A80000E941B0288E00E94E60361E08AE00E9467
:100A90001B028AE00E94E60361E08DE00E941B02D7
:100AA0008DE00E94E60360E08EE00E941B0260E0A1
:100AB0008FE00E941B0262E070E08AED92E00E94EB
:100AC000960362E070E084EC92E00E94960362E09C
:100AD00070E08EEA92E00E94960360E070E088E9A0
:100AE00092E00E9496038091A10181110AC01092A8
:100AF0009D0110929E0110929F011092A001C0933F
:100B0000A101AA24A394BB24B39450E4C52E52E4BB
:100B1000D52E5FE0E52EF12C3FB7F89480918E0141
:100B200090918F01A0919001B091910126B5A89B61
:100B300005C02F3F19F00196A11DB11D3FBFBA2F6F
:100B4000A92F982F8827820F911DA11DB11D42E06A
:100B5000880F991FAA1FBB1F4A95D1F74091940196
:100B60005091950160919601709197012C013D0182
:100B7000441A550A660A770A809394019093950166
:100B8000A0939601B09397016624772480919D01EC
:100B900090919E01A0919F01B091A001840D951D9F
:100BA000A61DB71D80939D0190939E01A0939F0168
:100BB000B093A001B301A2018AED92E00E9412035A
:100BC000B301A20184EC92E00E941203B301A201DE
:100BD0008EEA92E00E941203B301A20188E992E03A
:100BE0000E9412038091B3028823B9F0809198018A
:100BF000811113C0319B11C080919A018A25809385
:100C00009A01B0929801882321F02D9A03E010E018
:100C100016C02D9802E010E012C08091B402882323
:100C200021F08091980181119FC18091DF02811193
:100C300095C18091C902811194C104E010E0C09176
:100C40009B01D0919C0180910001909101018C1732
:100C50009D07A1F16EE271E083EB91E00E940E042A
:100C6000C830D105D0F4FE01EC5CFF4F0C94710844
:100C700061E471E014C068E471E011C061E571E005
:100C80000EC06AE571E00BC06DE671E008C066E772
:100C900071E005C06DE771E002C064E871E083EBCC
:100CA00091E00E940E04E091B301F091B401019033
:100CB000F081E02D6AE083EB91E00995D09301018A
:100CC000C0930001C0919B01D0919C01C230D1051D
:100CD00009F480C03CF4209781F0C130D10509F4BB
:100CE000E1C01ACFC530D10541F1C630D105C1F000
:100CF000C430D10509F010CF85C080919D028111CB
:100D000066C080919D0190919E01A0919F01B0913C
:100D1000A0018B3F9105A105B10508F41AC1BFC020
:100D20000330110509F407C10115110509F44CC080
:100D30000130110509F00DC101C16091E20270910D
:100D4000E3028091E4029091E5020330110509F479
:100D5000F2C020919A012111EEC001151105A1F1F7
:100D600020919D02211133C0A70196010E944F08D6
:100D7000C9010397039718F08EEE92E002C084EF4A
:100D800091E0263031054105510510F08AEF90E0E1
:100D90000130110509F0DDC02091920130919301DD
:100DA000232B09F4D4C0A0E0B0E040919D01509104
:100DB0009E0160919F017091A00184179507A6077D
:100DC000B70708F0C6C06BC0C1E0D0E0C2C0C2E047
:100DD000D0E0BFC080919D02882379F080919D0171
:100DE00090919E01A0919F01B091A0018F3E9240F1
:100DF000A105B10508F4ADC093C010929301109203
:100E00009201A5C0319904C080919A01811199C0C5
:100E10000230110509F495C080919901811122C019
:100E20002A9A80919201909193018031974208F023
:100E3000A0C030999EC080919D0190919E01A0918B
:100E40009F01B091A001853F9140A105B10550F0EF
:100E50000E94E00210929D0110929E0110929F014B
:100E60001092A001309B83C02A9A809192019091A8
:100E70009301181619060CF06CC080919D02811127
:100E800068C080919D0190919E01A0919F01B091B9
:100E9000A0018F3E9240A105B10508F45AC00E94FE
:100EA000F90240C06091CC027091CD028091CE02D7
:100EB0009091CF0203301105F1F120919A01211197
:100EC0003AC001301105D1F1A70196010E944F08E7
:100ED000C9010397039718F08EEE92E002C084EFE9
:100EE00091E0263031054105510510F08AEF90E080
:100EF000012B79F5209192013091930121313742F4
:100F000030F5A0E0B0E040919D0150919E016091CC
:100F10009F017091A00184179507A607B707C8F431
:100F20000E94E00210929D0110929E0110929F017A
:100F30001092A0010EC0C4E0D0E00BC0C5E0D0E02C
:100F400008C02D9810929A012A9810929901C6E033
:100F5000D0E0D0939C01C0939B01DECD01E010E076
:100F60006ECE00E010E06BCE109298015ECE2A9813
:100F7000F0CF2A98B092990175CFE3EBF1E013829C
:100F8000128288EE93E0A0E0B0E084839583A6838C
:100F9000B78386E091E09183808385EC90E095872C
:100FA000848784EC90E09787868780EC90E0918B33
:100FB000808B81EC90E0938B828B82EC90E0958B20
:100FC000848B86EC90E0978B868B118E128E138E1D
:100FD000148EE0E5F2E016821782108611861286E2
:100FE00013861486158616861786108A118A128A29
:100FF000138A148A158AEAEDF2E084E090E0918386
:10100000808348E050E053834283148228E131E03A
:101010003587248716861786108A118A8AE090E021
:10102000938B828B148A158AE4ECF2E065E070E021
:1010300071836083538342831482358724871686A5
:101040001786108A118A938B828B148A158AEEEA8E
:10105000F2E0A6E0B0E0B183A08353834283148220
:101060003587248716861786108A118A938B828B80
:10107000148A158AE8E9F2E04CE050E0518340839D
:101080007383628341E044833587248716861786FD
:10109000108A118A938B828B148A158A0895A1E293
:1010A0001A2EAA1BBB1BFD010DC0AA1FBB1FEE1FE2
:1010B000FF1FA217B307E407F50720F0A21BB30B2D
:1010C000E40BF50B661F771F881F991F1A9469F7A9
:1010D00060957095809590959B01AC01BD01CF0105
:1010E0000895EE0FFF1F0590F491E02D099481E023
:0C10F00090E0F8940C947C08F894FFCF7A
:1010FC000700000000000001B90398004701C90077
:10110C00A700BB0000000000F4015702564D4450EC
:10111C00565F317C315F564D4450560D0A00537466
:10112C00617465206368616E67656420746F3A2032
:10113C0000426F6F747570004D6F7665446F776EFB
:10114C000049646C654D6F766500537465704F662D
:10115C00664C696D69745377697463680041757482
:10116C006F4D6F7665004D6F76655570004E4F5420
:0E117C005345540044656661756C743F3F0036
:00000001FF
