:100000000C9481000C9410040C94E9030C94A90046
:100010000C94A9000C94A9000C94A9000C94A900BC
:100020000C94A9000C94A9000C94A9000C94A900AC
:100030000C94A9000C9437040C94A9000C94A9000A
:100040000C949F030C94A9000C9401020C94DB0106
:100050000C94A9000C94A9000C94A9000C94A9007C
:100060000C94A9000C94A900FB07FE0701080408E2
:1000700007080A080D08100835083E087D08A90879
:10008000E10841096C094F03140321032E032103E6
:100090004F033B03140314033B034F0321032E03BD
:1000A000210314034F030000000023002600290051
:1000B00000000000240027002A00000000002500A6
:1000C00028002B00040404040404040402020202B5
:1000D000020203030303030301020408102040800B
:1000E000010204081020010204081020000000088A
:1000F00000020100000304070000000000000000EF
:100100007E0911241FBECFEFD8E0DEBFCDBF23E0B4
:10011000A0EAB1E001C01D92AC30B207E1F711E0F6
:10012000A0E0B1E0EEE7F6E102C005900D92A03A42
:10013000B107D9F710E0C1E8D0E004C02197FE0173
:100140000E94320BC038D107C9F70E949A050C945F
:100150003D0B0C940000089580E090E00895FC01B0
:10016000538D448D252F30E0842F90E0821B930B1C
:10017000541710F0CF96089501970895FC01918DC2
:10018000828D981761F0828DDF01A80FB11D5D96F9
:100190008C91928D9F5F9F73928F90E008958FEF67
:1001A0009FEF0895FC01918D828D981731F0828D1B
:1001B000E80FF11D858D90E008958FEF9FEF089572
:1001C000FC01918D228D892F90E0805C9F4F821BD6
:1001D00091098F739927089585EE91E00E94E000C0
:1001E00021E0892B09F420E0822F0895FC01848D01
:1001F000DF01A80FB11DA35ABF4F2C91848D90E051
:1002000001968F739927848FA689B7892C93A0892B
:10021000B1898C9180648C93938D848D981306C0E2
:100220000288F389E02D80818F7D80830895EF928D
:10023000FF920F931F93CF93DF93EC0181E0888FA0
:100240009B8D8C8D981305C0E889F989808185FD87
:1002500024C0F62E0B8D10E00F5F1F4F0F73112778
:10026000E02E8C8DE8120CC00FB607FCFACFE8899F
:10027000F989808185FFF5CFCE010E94F600F1CF8C
:100280008B8DFE01E80FF11DE35AFF4FF0820B8FBB
:10029000EA89FB898081806207C0EE89FF896083DB
:1002A000E889F98980818064808381E090E0DF9132
:1002B000CF911F910F91FF90EF900895CF93DF930F
:1002C000EC01888D8823C9F0EA89FB89808185FD4E
:1002D00005C0A889B9898C9186FD0FC00FB607FCAF
:1002E000F5CF808185FFF2CFA889B9898C9185FFF0
:1002F000EDCFCE010E94F600E7CFDF91CF910895B8
:1003000080E090E0892B29F00E94EC0081110C9490
:1003100000000895833081F028F4813099F0823014
:10032000A1F008958730A9F08830B9F08430D1F475
:10033000809180008F7D03C0809180008F778093B3
:100340008000089584B58F7702C084B58F7D84BD09
:1003500008958091B0008F7703C08091B0008F7DA9
:100360008093B00008950895CF93DF93FC01218519
:1003700030E0F901E451FF4F8491F901E852FF4F59
:10038000D491F901EC53FF4FC491CC2379F0811142
:100390000E948A01EC2FF0E0EE0FFF1FEA55FF4F9D
:1003A000A591B491EC91ED2381E009F480E0817096
:1003B000DF91CF9108951F920F920FB60F921124E3
:1003C0002F933F934F935F936F937F938F939F935D
:1003D000AF93BF93EF93FF9385EE91E00E94F600F9
:1003E000FF91EF91BF91AF919F918F917F916F910D
:1003F0005F914F913F912F910F900FBE0F901F90E3
:1004000018951F920F920FB60F9211242F938F936E
:100410009F93EF93FF93E091F501F091F6018081B6
:10042000E091FB01F091FC0182FD12C0908180916E
:10043000FE018F5F8F732091FF01821751F0E091D1
:10044000FE01F0E0EB51FE4F958F8093FE0101C05D
:100450008081FF91EF919F918F912F910F900FBE0F
:100460000F901F9018951F93CF93DF93282F30E0A4
:10047000F901E451FF4F8491F901E852FF4FD49103
:10048000F901EC53FF4FC491CC23C9F0162F811111
:100490000E948A01EC2FF0E0EE0FFF1FE654FF4FA1
:1004A000A591B4918FB7F894111105C09C91ED2FCF
:1004B000E095E92302C0EC91ED2BEC938FBFDF9127
:1004C000CF911F910895CF93DF9390E0FC01E85204
:1004D000FF4F2491FC01EC53FF4F8491882361F17D
:1004E00090E0880F991FFC01E055FF4FC591D49112
:1004F000FC01E654FF4FA591B491611109C09FB76B
:10050000F8948881209582238883EC912E230BC058
:10051000623061F49FB7F8943881822F80958323ED
:100520008883EC912E2B2C939FBF06C08FB7F89435
:10053000E8812E2B28838FBFDF91CF910895862FDE
:10054000642F0C9463021F93CF93DF93182FEB015A
:1005500061E00E946302209711F460E004C0CF3F85
:10056000D10539F461E0812FDF91CF911F910C9477
:100570003302E12FF0E0E451FF4FE491E330F9F072
:1005800048F4E130B9F0E230A1F584B5806284BD71
:10059000C8BD34C0E730E9F0E83019F1E43049F57E
:1005A00080918000806280938000D0938B00C09304
:1005B0008A0024C084B5806884BDC7BD1FC08091F7
:1005C0008000806880938000D0938900C093880069
:1005D00015C08091B00080688093B000C093B300D4
:1005E0000DC08091B00080628093B000C093B400D1
:1005F00005C0C038D1050CF0B5CFAFCFDF91CF919A
:100600001F910895F8948091DB0183704B99846069
:100610004A998860482F50E04031510560F5FA0151
:10062000ED5BFF4F0C94320B4091A5015091A60158
:100630006091A7017091A8014F5F5F4F6F4F7F4F8F
:1006400026C04091A5015091A6016091A70170912B
:10065000A801415051096109710919C04091A501D2
:100660005091A6016091A7017091A8014E5F5F4F64
:100670006F4F7F4F0CC04091A5015091A601609132
:10068000A7017091A8014250510961097109409375
:10069000A5015093A6016093A7017093A80190E073
:1006A00095958795959587958093DB0178948091B2
:1006B000AC019091AD01049789F58091A001409122
:1006C000A5015091A6016091A7017091A801463B38
:1006D0005340610571054CF0882339F060E070E00B
:1006E0008AE00E94A3021092A0018091A001409193
:1006F000A5015091A6016091A7017091A801463B08
:1007000053406105710554F4813040F465EA70E0AE
:100710008AE00E94A30281E08093A00108950C94D6
:1007200002030C9402032FB7F8946091E1017091D9
:10073000E2018091E3019091E4012FBF08951F929F
:100740000F920FB60F9211242F933F938F939F9385
:10075000AF93BF938091E1019091E201A091E301F9
:10076000B091E4013091E00123E0230F2D3720F414
:100770000196A11DB11D05C026E8230F0296A11DFB
:10078000B11D2093E0018093E1019093E201A093D9
:10079000E301B093E4018091A1019091A201A091A5
:1007A000A301B091A4010196A11DB11D8093A101E7
:1007B0009093A201A093A301B093A401BF91AF9124
:1007C0009F918F913F912F910F900FBE0F901F908F
:1007D00018951F920F920FB60F9211242F933F93EB
:1007E0004F935F936F937F938F939F93AF93BF9339
:1007F000EF93FF93E0910401F09105010995FF91BA
:10080000EF91BF91AF919F918F917F916F915F9188
:100810004F913F912F910F900FBE0F901F90189501
:100820001F920F920FB60F9211242F933F934F9365
:100830005F936F937F938F939F93AF93BF93EF9348
:10084000FF93E0910201F09103010995FF91EF916F
:10085000BF91AF919F918F917F916F915F914F91D8
:100860003F912F910F900FBE0F901F9018951F92E0
:100870000F920FB60F9211242F933F934F935F93D4
:100880006F937F938F939F93AF93BF93EF93FF9358
:100890008091DE019091DF01909385008093840028
:1008A000E091DC01F091DD010995FF91EF91BF919D
:1008B000AF919F918F917F916F915F914F913F91F8
:1008C0002F910F900FBE0F901F9018958091A90146
:1008D000811104C05F9A81E08093A901289A299A26
:1008E00083E290E00197F1F729988091AA01909115
:1008F000AB0101979093AB018093AA010895809179
:10090000A901811104C05F9A81E08093A901289810
:10091000299A83E290E00197F1F729988091AA0142
:100920009091AB0101969093AB018093AA01089539
:10093000E898E2E0F1E083EB91E091838083E9982D
:100940009383828308956F927F928F929F92BF923A
:10095000CF92DF92EF92FF920F931F93CF93DF938B
:10096000EC016A017B011E828C898B7F8C8BEC856C
:10097000FD850190F081E02DCE010C960995B82EF1
:100980008C8986958170B81651F00E9493036E870A
:100990007F87888B998B9C8982E0892723C00E945E
:1009A00093030E851F85288939893B014C01601A04
:1009B000710A820A930A4A895B8960E070E06416D2
:1009C00075068606970678F09C899170B91659F0DD
:1009D0000E9493036E877F87888B998B9C8981E027
:1009E000892784608C8B9C818C89911101C08095B2
:1009F00081708D839F818D81911109C08823C9F0F9
:100A000081E08F83188619861A861B8612C0882378
:100A100069F088859985AA85BB85C80ED91EEA1E0E
:100A2000FB1EC886D986EA86FB8603C081E08E83DA
:100A30001F82DF91CF911F910F91FF90EF90DF9078
:100A4000CF90BF909F908F907F906F900895CF939D
:100A5000DF93EC0162E088810E94630288818D8BC4
:100A60001C8AEC85FD850190F081E02DCE010C966D
:100A70000995882319F08C8983608C8B0E949303DD
:100A80006E877F87888B998B8A819B819B8B8A8BD2
:100A9000DF91CF910895CF92DF92EF92FF920F9363
:100AA0001F93CF93DF936C017A018B01C0E0D0E0FC
:100AB000CE15DF0589F0D8016D918D01D601ED913C
:100AC000FC910190F081E02DC6010995892B11F46C
:100AD0007E0102C02196ECCFC701DF91CF911F911B
:100AE0000F91FF90EF90DF90CF9008950E94380B08
:100AF000CF93DF93C82FD62F61E00E9463026D2F42
:100B00008C2FDF91CF910C9433026115710579F030
:100B1000FB0101900020E9F73197AF01461B570B0D
:100B2000DC01ED91FC910280F381E02D099480E0DD
:100B300090E00895789484B5826084BD84B5816026
:100B400084BD85B5826085BD85B5816085BD809198
:100B50006E00816080936E00109281008091810010
:100B60008260809381008091810081608093810008
:100B7000809180008160809380008091B1008460CA
:100B80008093B1008091B00081608093B00080912B
:100B90007A00846080937A0080917A0082608093EA
:100BA0007A0080917A00816080937A0080917A0047
:100BB000806880937A001092C1001092C602109251
:100BC000C7021092C8021092C902109284021092B9
:100BD000850210928602109287020E9493036B0195
:100BE0007C012B013C0128EB420E2BE0521E611CC4
:100BF000711C0E9493036C157D058E059F0528F0DE
:100C00004616570668067906A0F785EE91E09093A0
:100C1000C5028093C402E091F501F091F60182E0F3
:100C20008083E091F101F091F2011082E091F301F3
:100C3000F091F40180E180831092FD01E091F901CF
:100C4000F091FA0186E08083E091F701F091F801DC
:100C5000808180618083E091F701F091F8018081CB
:100C600088608083E091F701F091F80180818068CD
:100C70008083E091F701F091F80180818F7D80837E
:100C80000E9493036093840270938502809386028E
:100C90009093870260E271E08091C4029091C50256
:100CA0000E9485050E9493036B017C012B013C018E
:100CB0008AE0480E511C611C711C0E9493036C1544
:100CC0007D058E059F0528F04616570668067906AD
:100CD000A0F7C1E0C0939802E091F501F091F60110
:100CE00082E08083E091F101F091F2011082E091C5
:100CF000F301F091F4018FEC80831092FD01E091FB
:100D0000F901F091FA0186E08083E091F701F0911A
:100D1000F801808180618083E091F701F091F80112
:100D2000808188608083E091F701F091F8018081F3
:100D300080688083E091F701F091F80180818F7DD8
:100D400080831092AD011092AC01C093A00160E0CD
:100D500087E00E94780560E089E00E94780560E005
:100D600088E00E94780560E08AE00E94780561E0F2
:100D700083E10E94780560E08BE00E94780565EAD7
:100D800070E08AE00E94A30260E070E08BE00E94C5
:100D9000A30286EF92E00E94270580EE92E00E9477
:100DA00027058AEC92E00E9427058091D3018111EA
:100DB0000AC01092CF011092D0011092D10110926E
:100DC000D201C093D3018091C70181110BC0109251
:100DD000C3011092C4011092C5011092C60181E0B6
:100DE0008093C701BB24B39451E9E52E53E0F52E5F
:100DF0006FE8C62E63E0D62E3FB7F8948091A1012C
:100E00009091A201A091A301B091A40126B5A89B45
:100E100005C02F3F19F00196A11DB11D3FBFBA2F8C
:100E2000A92F982F8827820F911DA11DB11D42E087
:100E3000880F991FAA1FBB1F4A95D1F74091AE0199
:100E40005091AF016091B0017091B1012C013D0151
:100E5000441A550A660A770A8093AE019093AF014F
:100E6000A093B001B093B101662477248091CF01A3
:100E70009091D001A091D101B091D201840D951D26
:100E8000A61DB71D8093CF019093D001A093D101EF
:100E9000B093D2018091C3019091C401A091C5018A
:100EA000B091C601840D951DA61DB71D8093C30189
:100EB0009093C401A093C501B093C601B301A201F0
:100EC00086EF92E00E94A304B301A20180EE92E0BB
:100ED0000E94A304B301A2018AEC92E00E94A30441
:100EE0008091B301811108C089B186FB882780F900
:100EF0008093B201B092B30189B186FB882780F953
:100F00009091B201981759F089B186FB882780F932
:100F10008093B2014E9911C003E010E02BC0809184
:100F2000FB02882369F04E9903C000E010E022C064
:100F30004E9B06C001E010E01DC004E010E01AC0A6
:100F40008091E502811114C085EE91E00E94E000DD
:100F5000181619060CF0CFC185EE91E00E94BE0074
:100F6000009719F38130910529F3029709F0C3C165
:100F700002E010E08091C3019091C401A091C501ED
:100F8000B091C6018135934CA105B105D8F080918F
:100F9000C201882341F060E070E08BE00E94A30270
:100FA0001092C20107C065EA70E08BE00E94A302C4
:100FB000B092C2011092C3011092C4011092C501F7
:100FC0001092C601C091AC01D091AD018091000199
:100FD000909101018C179D07B9F162E371E085EEF4
:100FE00091E00E948505C830D105E8F4FE01EC5C73
:100FF000FF4F0C94320B65E471E017C06CE471E0B4
:1010000014C065E571E011C068E671E00EC061E7EB
:1010100071E00BC06AE771E008C064E871E005C0E8
:101020006EE871E002C065E971E085EE91E00E9432
:101030008505E091E501F091E6010190F081E02D58
:101040006AE085EE91E00995D0930101C09300011B
:10105000C091AC01D091AD01C730D10508F0CCCE24
:10106000FE01E45CFF4F0C94320B8091CF02882389
:1010700099F11092AB011092AA0100C10330110541
:1010800019F41092C1010AC00430110519F4B0928C
:10109000C10104C00230110509F4F0C08091CF02F3
:1010A0008823D1F01092A5011092A6011092A701F9
:1010B0001092A8011092BB011092BC011092BD01C8
:1010C0001092BE011092AB011092AA015F9810928B
:1010D000A901C2E0D0E00AC18091CF019091D00176
:1010E000A091D101B091D2018B3F9105A105B1052D
:1010F00008F4FCC00E946604E6C08091CF028823F9
:1011000079F08091CF019091D001A091D101B0915F
:10111000D201853D9043A105B10508F4E7C0D1C0D7
:10112000F0920301E0920201809169008C7F81605E
:1011300080936900E89AD0920501C09204018091E1
:101140006900837F846080936900E99AC3E0D0E0FE
:10115000CDC00330110519F41092C1010CC0043048
:10116000110519F4B092C10106C00230110519F43D
:101170000E94980483C08091A5019091A601A0913E
:10118000A701B091A8014091BB015091BC016091B1
:10119000BD017091BE0184179507A607B70709F432
:1011A000A5C08093BB019093BC01A093BD01B093F7
:1011B000BE010297A105B1050CF498C0C4E0D0E0CF
:1011C00095C04090A5015090A6016090A701709035
:1011D000A8018091BB019091BC01A091BD01B0918B
:1011E000BE01481659066A067B06C1F04092BB0153
:1011F0005092BC016092BD017092BE01C301B20168
:101200000E94FE0920E030E048E851E40E948A0A8A
:101210000E94FC0A7093C0016093BF010091BF015E
:101220001091C0018091AA019091AB010817190794
:1012300071F08017910714F40E947F048091AA0135
:101240009091AB010817190714F40E94660481E815
:10125000481689EA580683E06806710408F446C017
:1012600065EA70E08AE00E94A3020E9498048091DF
:10127000C101882319F01092C10136C0C5E0D0E049
:1012800035C00115110581F10130110559F1809129
:10129000AA019091AB018534984430F05F98109288
:1012A000A901C6E0D0E022C08091CF019091D00189
:1012B000A091D101B091D2018B3F9105A105B1055B
:1012C000A8F00E947F041092CF011092D0011092DA
:1012D000D1011092D2010AC00115110529F0013087
:1012E000110521F4B092C101C1E0D0E0D093AD016D
:1012F000C093AC0181CD05E010E03CCEE5EEF1E01D
:101300001382128288EE93E0A0E0B0E0848395839C
:10131000A683B7838AE091E09183808385EC90E097
:101320009587848784EC90E09787868780EC90E0AF
:10133000918B808B81EC90E0938B828B82EC90E0A0
:10134000958B848B86EC90E0978B868B118E128E1A
:10135000138E148EE2E8F2E0168217821086118650
:10136000128613861486158616861786108A118AA9
:10137000128A138A148A158AE6EFF2E084E090E07C
:101380009183808368E070E07383628314822CE130
:1013900031E03587248716861786108A118A8AE0FD
:1013A00090E0938B828B148A158AE0EEF2E045E0A0
:1013B00050E051834083738362831482358724878E
:1013C00016861786108A118A938B828B148A158A47
:1013D000EAECF2E06CE070E0718360835383428357
:1013E00014823587248716861786108A118A938B74
:1013F000828B148A158A0895E89409C097FB3EF4FD
:1014000090958095709561957F4F8F4F9F4F992351
:10141000A9F0F92F96E9BB279395F69587957795CF
:101420006795B795F111F8CFFAF4BB0F11F460FF8F
:101430001BC06F5F7F4F8F4F9F4F16C0882311F0E7
:1014400096E911C0772321F09EE8872F762F05C0FB
:10145000662371F096E8862F70E060E02AF09A9596
:10146000660F771F881FDAF7880F9695879597F98B
:10147000089597F99F6780E870E060E008959FEF16
:1014800080EC089500240A9416161706180609061B
:10149000089500240A9412161306140605060895EA
:1014A000092E0394000C11F4882352F0BB0F40F472
:1014B000BF2B11F460FF04C06F5F7F4F8F4F9F4FB2
:1014C000089557FD9058440F551F59F05F3F71F034
:1014D0004795880F97FB991F61F09F3F79F087959B
:1014E0000895121613061406551FF2CF4695F1DF24
:1014F00008C0161617061806991FF1CF86957105B4
:10150000610508940895E894BB2766277727CB01E7
:1015100097F908950E949E0A0C94500A0E94490A65
:1015200058F00E94420A40F029F45F3F29F00C94E1
:10153000390A51110C94840A0C943F0A0E94610AE2
:1015400068F39923B1F3552391F3951B550BBB27F2
:10155000AA2762177307840738F09F5F5F4F220F37
:10156000331F441FAA1FA9F335D00E2E3AF0E0E82E
:1015700032D091505040E695001CCAF72BD0FE2F78
:1015800029D0660F771F881FBB1F2617370748070C
:10159000AB07B0E809F0BB0B802DBF01FF279358C4
:1015A0005F4F3AF09E3F510578F00C94390A0C9445
:1015B000840A5F3FE4F3983ED4F386957795679568
:1015C000B795F7959F5FC9F7880F911D96958795F9
:1015D00097F90895E1E0660F771F881FBB1F621718
:1015E00073078407BA0720F0621B730B840BBA0BD6
:1015F000EE1F88F7E09508950E94030B6894B111DF
:101600000C94840A08950E94690A88F09F5798F004
:10161000B92F9927B751B0F0E1F0660F771F881FF7
:10162000991F1AF0BA95C9F714C0B13091F00E9411
:10163000830AB1E008950C94830A672F782F8827D6
:10164000B85F39F0B93FCCF3869577956795B39538
:10165000D9F73EF490958095709561957F4F8F4FA7
:101660009F4F0895EE0FFF1F0590F491E02D099410
:0E16700081E090E0F8940C943D0BF894FFCFCD
:10167E000700B301B3010000000017014B05AF00D6
:10168E005E01E000BE00D20000000000B4019F0227
:10169E00564D4450565F317C315F564D4450560D79
:1016AE000A005374617465206368616E6765642017
:1016BE00746F3A2000426F6F747570004D6F7665CF
:1016CE004261636B00537465704F66664C696D6959
:1016DE00745377697463680049646C654261636B27
:1016EE00005072696E74696E67004D6F7665467252
:1016FE006F6E740049646C6546726F6E74004E4F67
:10170E00545345540044656661756C743F3F000048
:107800000C94343C0C94513C0C94513C0C94513CE1
:107810000C94513C0C94513C0C94513C0C94513CB4
:107820000C94513C0C94513C0C94513C0C94513CA4
:107830000C94513C0C94513C0C94513C0C94513C94
:107840000C94513C0C94513C0C94513C0C94513C84
:107850000C94513C0C94513C0C94513C0C94513C74
:107860000C94513C0C94513C11241FBECFEFD8E036
:10787000DEBFCDBF11E0A0E0B1E0ECE9FFE702C060
:1078800005900D92A230B107D9F712E0A2E0B1E065
:1078900001C01D92AD30B107E1F70E942D3D0C945F
:1078A000CC3F0C94003C982F959595959595959582
:1078B000905D8F708A307CF0282F295A8091C0000B
:1078C00085FFFCCF9093C6008091C00085FFFCCF60
:1078D0002093C6000895282F205DF0CF982F809127
:1078E000C00085FFFCCF9093C6000895EF92FF92F1
:1078F0000F931F93EE24FF2487018091C00087FD22
:1079000017C00894E11CF11C011D111D81E4E8164B
:1079100082E4F8068FE0080780E0180770F3E09132
:107920000401F091050109958091C00087FFE9CF1E
:107930008091C6001F910F91FF90EF9008950E94D3
:10794000763C982F8091C00085FFFCCF9093C600B5
:1079500091362CF490330CF09053892F089597555D
:10796000892F08951F930E949F3C182F0E949F3CCF
:107970001295107F810F1F9108951F93182F882350
:1079800021F00E94763C1150E1F71F9108951F935A
:10799000182F0E94763C803249F0809103018F5F5E
:1079A000809303018530C1F01F9108958091C0003C
:1079B00085FFFCCF84E18093C6008091C00085FFE5
:1079C000FCCF1093C6008091C00085FFFCCF80E102
:1079D0008093C6001F910895E0910401F091050184
:1079E00009951F9108950E94763C803241F0809164
:1079F00003018F5F80930301853081F008958091AA
:107A0000C00085FFFCCF84E18093C6008091C00058
:107A100085FFFCCF80E18093C6000895E0910401CA
:107A2000F09105010995089540E951E08823A1F0FE
:107A30002D9A28EE33E0FA013197F1F721503040CA
:107A4000D1F72D9828EE33E0FA013197F1F7215064
:107A50003040D1F7815061F708953F924F925F9285
:107A60006F927F928F929F92AF92BF92CF92DF924E
:107A7000EF92FF920F931F93CF93DF93000080E16B
:107A80008093C4001092C50088E18093C10086E015
:107A90008093C2005098589A259A81E00E94143D24
:107AA00024E1F22E9EE1E92E85E9D82E0FE0C02ECA
:107AB00010E1B12EAA24A394B1E49B2EA6E58A2E50
:107AC000F2E57F2EE0E26E2E79E4572E63E5462E36
:107AD00050E5352E0E94763C8033B1F18133B9F107
:107AE000803409F46FC0813409F476C0823409F41B
:107AF00085C0853409F488C0803531F1823521F1A3
:107B0000813511F1853509F485C0863509F48DC0BC
:107B1000843609F496C0843709F403C1853709F423
:107B200072C1863709F466C0809103018F5F80932C
:107B30000301853079F6E0910401F0910501099582
:107B40000E94763C803351F60E94F33CC3CF0E94E2
:107B5000763C803249F78091C00085FFFCCFF092DF
:107B6000C6008091C00085FFFCCF9092C600809136
:107B7000C00085FFFCCF8092C6008091C00085FFC9
:107B8000FCCF7092C6008091C00085FFFCCF609250
:107B9000C6008091C00085FFFCCF5092C600809146
:107BA000C00085FFFCCF4092C6008091C00085FFD9
:107BB000FCCF3092C6008091C00085FFFCCFB09210
:107BC000C60088CF0E94763C863808F4BDCF0E945C
:107BD000763C0E94F33C7ECF0E94763C803809F4CC
:107BE0009CC0813809F40BC1823809F43CC1883942
:107BF00009F48FC080E00E94C73C6CCF84E10E94F2
:107C0000BD3C0E94F33C66CF85E00E94BD3C0E94D3
:107C1000F33C60CF0E94763C809306010E94763C44
:107C2000809307010E94F33C55CF0E94763C80333D
:107C300009F41DC183E00E94BD3C80E00E94C73C66
:107C400049CF0E94763C809309020E94763C809343
:107C5000080280910C028E7F80930C020E94763C79
:107C6000853409F415C18091080290910902892B8D
:107C700089F000E010E00E94763CF801E85FFE4FDA
:107C800080830F5F1F4F80910802909109020817AF
:107C9000190788F30E94763C803209F045CF809125
:107CA0000C0280FF01C16091060170910701660F0F
:107CB000771F7093070160930601A0910802B091AD
:107CC00009021097C9F0E8E0F1E09B01AD014E0F09
:107CD0005F1FF999FECF32BD21BD819180BDFA9A17
:107CE000F99A2F5F3F4FE417F50799F76A0F7B1F4B
:107CF00070930701609306018091C00085FFFCCF5F
:107D0000F092C6008091C00085FFFCCFB092C60003
:107D1000E1CE83E00E94C73CDDCE82E00E94C73CFA
:107D2000D9CE0E94763C809309020E94763C8093D3
:107D300008028091060190910701880F991F909386
:107D40000701809306010E94763C853409F4A6C0A1
:107D500080910C028E7F80930C020E94763C8032D0
:107D600009F0B8CE8091C00085FFFCCFF092C6002C
:107D7000609108027091090261157105B9F140E046
:107D800050E080910C02A82FA170B82FB27011C0E2
:107D9000BB2309F45CC0E0910601F0910701319624
:107DA000F0930701E09306014F5F5F4F46175707B7
:107DB000E8F4AA2369F3F999FECF209106013091E6
:107DC000070132BD21BDF89A90B58091C00085FFB2
:107DD000FCCF9093C6002F5F3F4F30930701209355
:107DE00006014F5F5F4F4617570718F38091C00099
:107DF00085FDE5CE8091C00085FFF8CFE0CE81E023
:107E00000E94C73C67CE0E94763C803209F08CCE3F
:107E10008091C00085FFFCCFF092C6008091C00029
:107E200085FFFCCFE092C6008091C00085FFFCCFAB
:107E3000D092C6008091C00085FFFCCFC092C600E2
:107E40008091C00085FFFCCFB092C60043CEE09188
:107E50000601F091070194918091C00085FFFCCF4D
:107E60009093C6009CCF80E10E94C73C33CE0E9415
:107E7000763C0E94763C182F0E94763C112309F430
:107E800083C0113009F484C08FE00E94C73C22CE29
:107E900080910C02816080930C02E5CE80910C02EF
:107EA000816080930C0259CF809107018823880F4D
:107EB000880B8A2180930B02809106019091070123
:107EC000880F991F90930701809306018091080203
:107ED00080FF09C080910802909109020196909359
:107EE000090280930802F894F999FECF1127E091D6
:107EF0000601F0910701C8E0D1E08091080290915D
:107F00000902103091F40091570001700130D9F34B
:107F100003E000935700E89500915700017001308D
:107F2000D9F301E100935700E89509901990009169
:107F3000570001700130D9F301E000935700E89534
:107F40001395103498F011270091570001700130FB
:107F5000D9F305E000935700E895009157000170B0
:107F60000130D9F301E100935700E895329602976A
:107F700009F0C7CF103011F00296E5CF112480919F
:107F8000C00085FFB9CEBCCE8EE10E94C73CA2CD19
:0C7F900085E90E94C73C9ECDF894FFCF0D
:027F9C00800063
:040000030000780081
:00000001FF