:100000000C9471000C946A030C9443030C949900B3
:100010000C9499000C9499000C9499000C949900FC
:100020000C9499000C9499000C9499000C949900EC
:100030000C9499000C9499000C9499000C949900DC
:100040000C94F9020C9499000C944B020C94250228
:100050000C9499000C9499000C9499000C949900BC
:100060000C9499000C949900A208A508A808AB0864
:10007000AE08B108B408B708DC08E5082B09410947
:100080007509DF090D0A00000000240027002A007E
:1000900000000000250028002B00000000080002DE
:1000A000010000030407000000000000000001023E
:1000B00004081020408001020408102001020408F6
:1000C000102000000000230026002900040404047E
:1000D00004040404020202020202030303030303F2
:1000E000480A11241FBECFEFD8E0DEBFCDBF23E00A
:1000F000A4EBB1E001C01D92AD32B207E1F711E00F
:10010000A0E0B1E0E6EDF9E102C005900D92A43B5C
:10011000B107D9F710E0C1E7D0E004C02197FE0194
:100120000E94DE0CC037D107C9F70E9432050C943B
:10013000E90C0C940000089580E090E00895FC0123
:10014000538D448D252F30E0842F90E0821B930B3C
:10015000541710F0CF96089501970895FC01918DE2
:10016000828D981761F0828DDF01A80FB11D5D9619
:100170008C91928D9F5F9F73928F90E008958FEF87
:100180009FEF0895FC01918D828D981731F0828D3B
:10019000E80FF11D858D90E008958FEF9FEF089592
:1001A000FC01918D228D892F90E0805C9F4F821BF6
:1001B00091098F739927089586EF91E00E94D000EE
:1001C00021E0892B09F420E0822F0895FC01848D21
:1001D000DF01A80FB11DA35ABF4F2C91848D90E071
:1001E00001968F739927848FA689B7892C93A0894C
:1001F000B1898C9180648C93938D848D981306C003
:100200000288F389E02D80818F7D80830895EF92AD
:10021000FF920F931F93CF93DF93EC0181E0888FC0
:100220009B8D8C8D981305C0E889F989808185FDA7
:1002300024C0F62E0B8D10E00F5F1F4F0F73112798
:10024000E02E8C8DE8120CC00FB607FCFACFE889BF
:10025000F989808185FFF5CFCE010E94E600F1CFBC
:100260008B8DFE01E80FF11DE35AFF4FF0820B8FDB
:10027000EA89FB898081806207C0EE89FF896083FB
:10028000E889F98980818064808381E090E0DF9152
:10029000CF911F910F91FF90EF900895CF93DF932F
:1002A000EC01888D8823C9F0EA89FB89808185FD6E
:1002B00005C0A889B9898C9186FD0FC00FB607FCCF
:1002C000F5CF808185FFF2CFA889B9898C9185FF10
:1002D000EDCFCE010E94E600E7CFDF91CF910895E8
:1002E00080E090E0892B29F00E94DC0081110C94C1
:1002F00000000895833081F028F4813099F0823035
:10030000A1F008958730A9F08830B9F08430D1F495
:10031000809180008F7D03C0809180008F778093D3
:100320008000089584B58F7702C084B58F7D84BD29
:1003300008958091B0008F7703C08091B0008F7DC9
:100340008093B0000895CF93DF93282F30E0F90118
:10035000E656FF4F8491F901E255FF4FD491F90120
:10036000E453FF4FC491CC2391F081110E947A0194
:10037000EC2FF0E0EE0FFF1FEE53FF4FA591B4916D
:10038000EC91ED2381E090E021F480E002C080E078
:1003900090E0DF91CF9108950895FC0181850E943E
:1003A000A30121E0892B09F420E0822F0895DC01CC
:1003B000ED91FD918081ED91FD919081ED91FD9107
:1003C0006C9163708E2309F064609F2309F068606C
:1003D000E4EFF1E0E60FF11D659565956D936D9184
:1003E0007D918D919D91099423C01AC012C016C0B1
:1003F00010C01EC009C014C013C006C019C009C077
:100400000DC007C00DC014C06250704080409040C5
:100410000BC0615070408040904006C06E5F01C0CC
:100420006F5F7F4F8F4F9F4F9E938E937E936E9300
:1004300008958091DD029091DE020C94D7018091A5
:10044000DB029091DC020C94D7011F920F920FB641
:100450000F9211242F933F934F935F936F937F934A
:100460008F939F93AF93BF93EF93FF9386EF91E0AA
:100470000E94E600FF91EF91BF91AF919F918F9104
:100480007F916F915F914F913F912F910F900FBE90
:100490000F901F9018951F920F920FB60F92112474
:1004A0002F938F939F93EF93FF93E0910602F09128
:1004B00007028081E0910C02F0910D0282FD12C0D2
:1004C000908180910F028F5F8F73209110028217AD
:1004D00051F0E0910F02F0E0EA50FE4F958F8093CB
:1004E0000F0201C08081FF91EF919F918F912F9119
:1004F0000F900FBE0F901F9018951F93CF93DF930F
:10050000282F30E0F901E656FF4F8491F901E255BA
:10051000FF4FD491F901E453FF4FC491CC23C9F0AC
:10052000162F81110E947A01EC2FF0E0EE0FFF1FD1
:10053000E057FF4FA591B4918FB7F894111105C002
:100540009C91ED2FE095E92302C0EC91ED2BEC930B
:100550008FBFDF91CF911F910895CF93DF9390E0EC
:10056000FC01E255FF4F2491FC01E453FF4F8491BD
:10057000882361F190E0880F991FFC01EA57FF4F33
:10058000C591D491FC01E057FF4FA591B491611141
:1005900009C09FB7F8948881209582238883EC91C5
:1005A0002E230BC0623061F49FB7F8943881822FFC
:1005B000809583238883EC912E2B2C939FBF06C0BC
:1005C0008FB7F894E8812E2B28838FBFDF91CF91CE
:1005D0000895862F642F0C94AD022FB7F894609184
:1005E000F2017091F3018091F4019091F5012FBF18
:1005F00008951F920F920FB60F9211242F933F93DD
:100600008F939F93AF93BF938091F2019091F301E9
:10061000A091F401B091F5013091F10123E0230F95
:100620002D3720F40196A11DB11D05C026E8230F2A
:100630000296A11DB11D2093F1018093F2019093C8
:10064000F301A093F401B093F5018091B40190916E
:10065000B501A091B601B091B7010196A11DB11DE0
:100660008093B4019093B501A093B601B093B70104
:10067000BF91AF919F918F913F912F910F900FBE9E
:100680000F901F9018951F920F920FB60F92112482
:100690002F933F934F935F936F937F938F939F938A
:1006A000AF93BF93EF93FF93E0910401F0910501A5
:1006B0000995FF91EF91BF91AF919F918F917F919C
:1006C0006F915F914F913F912F910F900FBE0F90BF
:1006D0001F9018951F920F920FB60F9211242F930F
:1006E0003F934F935F936F937F938F939F93AF93BA
:1006F000BF93EF93FF93E0910201F09103010995FD
:10070000FF91EF91BF91AF919F918F917F916F91E9
:100710005F914F913F912F910F900FBE0F901F90BF
:1007200018950E94A30121E0019709F020E0822F93
:1007300008958091B801811107C061E08EE00E94A8
:100740007D0281E08093B80161E088E00E947D0233
:1007500061E089E00E947D0260E089E00E947D0204
:100760008091B9019091BA0101979093BA01809359
:10077000B90108958091B801811107C061E08EE050
:100780000E947D0281E08093B80160E088E00E94D1
:100790007D0261E089E00E947D0260E089E00E94C4
:1007A0007D028091B9019091BA0101969093BA01AE
:1007B0008093B90108958091EA02823030F4F89470
:1007C0008FED92E00E94D70101C0F8946091E6029B
:1007D0007091E7028091E8029091E902789408957F
:1007E0006F927F928F929F92BF92CF92DF92EF9201
:1007F000FF920F931F93CF93DF93EC016A017B016C
:100800001E828C898B7F8C8BEC85FD850190F0811D
:10081000E02DCE010C960995B82E8C8986958170B5
:10082000B81651F00E94ED026E877F87888B998BF6
:100830009C8982E0892723C00E94ED020E851F85D6
:10084000288939893B014C01601A710A820A930A8E
:100850004A895B8960E070E0641675068606970633
:1008600078F09C899170B91659F00E94ED026E875C
:100870007F87888B998B9C8981E0892784608C8B0A
:100880009C818C89911101C0809581708D839F819D
:100890008D81911109C08823C9F081E08F8318866A
:1008A00019861A861B8612C0882369F08885998567
:1008B000AA85BB85C80ED91EEA1EFB1EC886D9862E
:1008C000EA86FB8603C081E08E831F82DF91CF9191
:1008D0001F910F91FF90EF90DF90CF90BF909F906E
:1008E0008F907F906F900895CF93DF93EC0162E03B
:1008F00088810E94AD0288818D8B1C8AEC85FD85E4
:100900000190F081E02DCE010C960995882319F015
:100910008C8983608C8B0E94ED026E877F87888B29
:10092000998B8A819B819B8B8A8BDF91CF910895D4
:10093000CF92DF92EF92FF920F931F93CF93DF93AB
:100940006C017A018B01C0E0D0E0CE15DF0589F0A3
:10095000D8016D918D01D601ED91FC910190F0814E
:10096000E02DC6010995892B11F47E0102C0219664
:10097000ECCFC701DF91CF911F910F91FF90EF90C6
:10098000DF90CF9008950E94E40CCF93DF93C82F9F
:10099000D62F61E00E94AD026D2F8C2FDF91CF9199
:1009A0000C947D026115710579F0FB010190002026
:1009B000E9F73197AF01461B570BDC01ED91FC9134
:1009C0000280F381E02D099480E090E008954F9239
:1009D0005F926F927F92EF92FF920F931F93CF934C
:1009E000DF93CDB7DEB7A1970FB6F894DEBF0FBE89
:1009F000CDBF7C01FA01CB0119A2223008F42AE014
:100A00008E010F5D1F4F422E512C612C712CBF01A6
:100A1000A30192010E94140CF901CA0101501109AD
:100A20006A3014F4605D01C0695CD8016C93232BBB
:100A3000242B252B61F7B801C7010E94D204A1968F
:100A40000FB6F894DEBF0FBECDBFDF91CF911F91DF
:100A50000F91FF90EF907F906F905F904F9008956F
:100A60000C94D204789484B5826084BD84B581608E
:100A700084BD85B5826085BD85B5816085BD809169
:100A80006E00816080936E001092810080918100E1
:100A900082608093810080918100816080938100D9
:100AA000809180008160809380008091B10084609B
:100AB0008093B1008091B00081608093B0008091FC
:100AC0007A00846080937A0080917A0082608093BB
:100AD0007A0080917A00816080937A0080917A0018
:100AE000806880937A001092C1001092D702109211
:100AF000D8021092D9021092DA0210929502109246
:100B0000960210929702109298020E94ED026B01D9
:100B10007C012B013C0128EB420E2BE0521E611C94
:100B2000711C0E94ED026C157D058E059F0528F055
:100B30004616570668067906A0F786EF91E090936F
:100B4000D6028093D502E0910602F091070282E07E
:100B50008083E0910202F09103021082E09104028E
:100B6000F091050280E1808310920E02E0910A026A
:100B7000F0910B0286E08083E0910802F091090277
:100B8000808180618083E0910802F0910902808178
:100B900088608083E0910802F0910902808180687A
:100BA0008083E0910802F091090280818F7D80832B
:100BB0000E94ED02609395027093960280939702D3
:100BC0009093980260E271E08091D5029091D602F4
:100BD0000E9430050E94ED026B017C012B013C015B
:100BE0008AE0480E511C611C711C0E94ED026C15BC
:100BF0007D058E059F0528F046165706680679067E
:100C0000A0F781E08093A902E0910602F09107022B
:100C100082E08083E0910202F09103021082E09171
:100C20000402F09105028FEC808310920E02E09195
:100C30000A02F0910B0286E08083E0910802F091B5
:100C40000902808180618083E0910802F0910902AD
:100C5000808188608083E0910802F09109028081A0
:100C600080688083E0910802F091090280818F7D85
:100C7000808361E08BE00E94C50460E08CE00E940C
:100C8000C50461E08DE00E94C50461E08AE00E9435
:100C9000C50461E08FE00E94C50460E08EE00E9420
:100CA000C50460E089E00E94C50460E088E00E941D
:100CB000C50461E080E10E94C50461E083E10E9417
:100CC000C50460E081E10E94C50487E193E00E94D1
:100CD000740481E093E00E9474048BEE92E00E9421
:100CE000740454EFC52EDD24D394E12CF12C33246D
:100CF00033940E94ED02672B682B692B41F40E940C
:100D0000ED02623071058105910508F417C10E945A
:100D1000ED026093ED017093EE018093EF019093EB
:100D2000F0010091E9011091EA012091EB0130916D
:100D3000EC01601771078207930740F46093E901A3
:100D40007093EA018093EB019093EC010091E9012B
:100D50001091EA012091EB013091EC014B015C0113
:100D6000801A910AA20AB30A950184010A3F11056B
:100D70002105310508F4E2C06093E9017093EA01AE
:100D80008093EB019093EC01C092A102D092A20259
:100D9000E092A302F092A4021092A5021092A60281
:100DA0001092A7021092A8028091990290919A0243
:100DB000A0919B02B0919C0280939D0290939E0211
:100DC000A0939F02B093A0020E94ED02609399024B
:100DD00070939A0280939B0290939C020E94ED0272
:100DE0006093950270939602809397029093980275
:100DF0000E94ED022B013C0162E371E08091D5027B
:100E00009091D6020E9430052AE041E050E060E077
:100E100070E08091D5029091D6020E94E70469E3C8
:100E200071E08091D5029091D6020E9430052AE0AF
:100E3000B301A2018091D5029091D6020E94E704ED
:100E40006BE371E08091D5029091D6020E9430054B
:100E50008091990290919A02A0919B02B0919C027C
:100E6000B301A201481B590B6A0B7B0B2AE080914E
:100E7000D5029091D6020E94E7046BE371E0809165
:100E8000D5029091D6020E9430054091990250916E
:100E90009A0260919B0270919C0280919D029091B8
:100EA0009E02A0919F02B091A002481B590B6A0BB1
:100EB0007B0B2AE08091D5029091D6020E94E70434
:100EC0006DE371E08091D5029091D6020E943005C9
:100ED0000E94ED02AB01BC012AE08091D502909105
:100EE000D6020E94E704C091D502D091D6026FE3EA
:100EF00071E0CE010E94D2046FE271E0CE010E9447
:100F0000D2040E94ED024B015C012B013C0125E063
:100F1000420E511C611C711C0E94ED02681579057E
:100F20008A059B0508F08AC20E94ED02609399022F
:100F300070939A0280939B0290939C028091E101AE
:100F400081110AC01092DD011092DE011092DF01C2
:100F50001092E0013092E1018091D50181110AC027
:100F60001092D1011092D2011092D3011092D401AB
:100F70003092D5013FB7F8948091B4019091B501BA
:100F8000A091B601B091B70126B5A89B05C02F3F2F
:100F900019F00196A11DB11D3FBFBA2FA92F982F9F
:100FA0008827820F911DA11DB11D42E0880F991F56
:100FB000AA1FBB1F4A95D1F74091BB015091BC01BC
:100FC0006091BD017091BE012C013D01441A550A8A
:100FD000660A770A8093BB019093BC01A093BD0180
:100FE000B093BE01662477248091DD019091DE01EB
:100FF000A091DF01B091E001840D951DA61DB71DE4
:101000008093DD019093DE01A093DF01B093E001B6
:101010008091D1019091D201A091D301B091D401DE
:10102000840D951DA61DB71D8093D1019093D2010B
:10103000A093D301B093D401B301A20187E193E05F
:101040000E94F003B301A20181E093E00E94F0034B
:10105000B301A2018BEE92E00E94F0038091C001E7
:10106000811107C086E00E9491038093BF013092F6
:10107000C001C091BF0186E00E949103C81769F0CA
:1010800086E00E9491038093BF0186E00E94910355
:1010900081110FC003E010E01CC080911C03882365
:1010A00059F086E00E949103811106C000E010E033
:1010B00010C004E010E00DC080911C03882309F4E7
:1010C000C4C186E00E949103882309F4BEC101E0F7
:1010D00010E08091D1019091D201A091D301B09103
:1010E000D4018135934CA105B10598F081E10E94AE
:1010F0009103882311F060E001C061E081E10E946A
:101100007D021092D1011092D2011092D30110925F
:10111000D401C091CF01D091D00180910001909174
:1011200001018C179D07B9F166E471E086EF91E04B
:101130000E943005C830D105E8F4FE01EC5CFF4F99
:101140000C94DE0C69E571E017C060E671E014C034
:1011500069E671E011C06CE771E00EC065E871E00E
:101160000BC06EE871E008C068E971E005C062EA92
:1011700071E002C069EA71E086EF91E00E943005FB
:10118000E091F601F091F7010190F081E02D6AE025
:1011900086EF91E00995D0930101C0930001C091C1
:1011A000CF01D091D001C730D10508F044C1FE0174
:1011B000E45CFF4F0C94DE0C8091F0028823D1F1A7
:1011C0001092BA011092B901F7C00330110519F459
:1011D0001092CE010AC00430110519F43092CE01EC
:1011E00004C00230110509F4E7C08091F0028823A1
:1011F00009F1F8941092E6021092E7021092E802C8
:101200001092E90278940E94DB036093C801709306
:10121000C9018093CA019093CB011092BA01109238
:10122000B90160E08EE00E947D021092B801C2E038
:10123000D0E0FDC08091DD019091DE01A091DF0141
:10124000B091E0018B3F9105A105B10508F4EFC015
:101250000E949903D9C08091F002882379F080918F
:10126000DD019091DE01A091DF01B091E001853DAB
:101270009043A105B10508F4DAC0C4C0C3E0D0E0D2
:10128000D6C00330110519F41092CE010AC0043003
:10129000110519F43092CE0104C00230110509F491
:1012A0008BC00E94DB030091C8011091C9012091FD
:1012B000CA013091CB01601771078207930709F4C7
:1012C000B6C06093C8017093C9018093CA0190931E
:1012D000CB010E94DB0362307105810591050CF49E
:1012E000A6C07894C4E0D0E0A2C00E94DB030091C5
:1012F000C8011091C9012091CA013091CB0160173A
:10130000710782079307C1F06093C8017093C90108
:101310008093CA019093CB010E94DB030E94880B4B
:1013200020E030E048E851E40E94360C0E94A80C0E
:101330007093CD016093CC010091CC011091CD014F
:101340008091B9019091BA010817190771F08017BF
:10135000910714F40E94BA038091B9019091BA01E7
:101360000817190714F40E94990380E10E94910361
:10137000882379F00E94DB03673B73408105910568
:1013800044F00E94DB036A317440810591050CF43E
:101390007AC00E94DB036138794A8340910508F4E2
:1013A00046C061E080E10E947D028091CE018823E9
:1013B00019F01092CE0139C0C5E0D0E038C0011557
:1013C000110599F10130110571F18091B9019091E8
:1013D000BA018534984448F060E08EE00E947D02B6
:1013E0001092B801C6E0D0E022C08091DD0190915A
:1013F000DE01A091DF01B091E0018B3F9105A105D5
:10140000B105A8F00E94BA031092DD011092DE012E
:101410001092DF011092E0010AC00115110529F0B8
:101420000130110521F43092CE01C1E0D0E0D0931B
:10143000D001C093CF010E9470015BCC46165706C5
:101440006806790608F068CD6FCD8091060381119A
:1014500014C086EF91E00E94D0001816190684F49B
:1014600086EF91E00E94AE00009709F41FCE813014
:10147000910509F42CCE029719F402E010E029CE70
:1014800005E010E026CE60E080E10E947D0281CF81
:10149000CF93DF931092F9011092F80188EE93E058
:1014A000A0E0B0E08093FA019093FB01A093FC01CF
:1014B000B093FD018AE091E09093F7018093F601EB
:1014C00085EC90E0909303028093020284EC90E01C
:1014D000909305028093040280EC90E090930702C1
:1014E0008093060281EC90E09093090280930802B9
:1014F00082EC90E090930B0280930A0286EC90E0DD
:1015000090930D0280930C0210920F021092100221
:1015100010921102109212021092990210929A02E5
:1015200010929B0210929C0210929D0210929E02B9
:1015300010929F021092A0021092A1021092A20299
:101540001092A3021092A4021092A5021092A60279
:101550001092A7021092A80262E083E00E94AD02FE
:1015600062E082E00E94AD02EFECF0E0E491F0E096
:10157000EE0FFF1FEE53FF4FA591B491B093E00221
:10158000A093DF02E1EBF0E084918093E302EEECC4
:10159000F0E0E491F0E0EE0FFF1FEE53FF4FC59136
:1015A000D491D093E202C093E102E0EBF0E0E49149
:1015B000E093E4021092E6021092E7021092E80231
:1015C0001092E902EBE3FFE13197F1F7EC91E823A8
:1015D00081E009F480E028819091E402922309F0EF
:1015E00082602FED32E08093E5023093DE0220939B
:1015F000DD0289E192E090930501809304018091DE
:101600006900837F846080936900E99A81E0809318
:10161000EA023093DC022093DB028FE192E09093A8
:10162000030180930201809169008C7F8160809327
:101630006900E89A82E08093EA0284E090E0909367
:1016400018038093170368E070E070931A036093A7
:10165000190310921B032CE131E0309324032093F3
:101660002303109225031092260310922703109251
:1016700028038AE090E090932A0380932903109234
:101680002B0310922C0345E050E05093020340934B
:1016900001037093040360930303109205033093D6
:1016A0000E0320930D0310920F031092100310925B
:1016B000110310921203909314038093130310925A
:1016C00015031092160367E070E07093EC026093CC
:1016D000EB025093EE024093ED021092EF02309332
:1016E000F8022093F7021092F9021092FA02109277
:1016F000FB021092FC029093FE028093FD02109276
:10170000FF0210920003DF91CF910895E89409C081
:1017100097FB3EF490958095709561957F4F8F4F24
:101720009F4F9923A9F0F92F96E9BB279395F6953A
:10173000879577956795B795F111F8CFFAF4BB0FB8
:1017400011F460FF1BC06F5F7F4F8F4F9F4F16C01C
:10175000882311F096E911C0772321F09EE8872FA6
:10176000762F05C0662371F096E8862F70E060E062
:101770002AF09A95660F771F881FDAF7880F9695DB
:10178000879597F9089597F99F6780E870E060E082
:1017900008959FEF80EC089500240A94161617060A
:1017A00018060906089500240A9412161306140652
:1017B00005060895092E0394000C11F4882352F0B5
:1017C000BB0F40F4BF2B11F460FF04C06F5F7F4F6D
:1017D0008F4F9F4F089557FD9058440F551F59F054
:1017E0005F3F71F04795880F97FB991F61F09F3F0E
:1017F00079F087950895121613061406551FF2CF37
:101800004695F1DF08C0161617061806991FF1CF86
:1018100086957105610508940895E894BB276627AD
:101820007727CB0197F90895A1E21A2EAA1BBB1BBB
:10183000FD010DC0AA1FBB1FEE1FFF1FA217B3079C
:10184000E407F50720F0A21BB30BE40BF50B661FB2
:10185000771F881F991F1A9469F760957095809576
:1018600090959B01AC01BD01CF0108950E944A0CE7
:101870000C94DA0B0E94D30B58F00E94CC0B40F072
:1018800029F45F3F29F00C94C30B51110C940E0CFA
:101890000C94C90B0E94EB0B68F39923B1F3552309
:1018A00091F3951B550BBB27AA2762177307840773
:1018B00038F09F5F5F4F220F331F441FAA1FA9F309
:1018C00035D00E2E3AF0E0E832D091505040E695F7
:1018D000001CCAF72BD0FE2F29D0660F771F881F58
:1018E000BB1F261737074807AB07B0E809F0BB0B4B
:1018F000802DBF01FF2793585F4F3AF09E3F51055F
:1019000078F00C94C30B0C940E0C5F3FE4F3983EFC
:10191000D4F3869577956795B795F7959F5FC9F747
:10192000880F911D9695879597F90895E1E0660FC8
:10193000771F881FBB1F621773078407BA0720F041
:10194000621B730B840BBA0BEE1F88F7E0950895AA
:101950000E94AF0C6894B1110C940E0C08950E9473
:10196000F30B88F09F5798F0B92F9927B751B0F033
:10197000E1F0660F771F881F991F1AF0BA95C9F713
:1019800014C0B13091F00E940D0CB1E008950C9498
:101990000D0C672F782F8827B85F39F0B93FCCF34B
:1019A000869577956795B395D9F73EF49095809590
:1019B000709561957F4F8F4F9F4F0895EE0FFF1FDA
:1019C0000590F491E02D099481E090E0F8940C9456
:0619D000E90CF894FFCFC2
:1019D6000700CC01CC0100000000070198049F001D
:1019E6004E01D000AE00C20000000000CD01E902A9
:1019F600564D4450565F317C315F564D4450560D1E
:101A06000A00564D4450455F003A323A007C005F6A
:101A1600564D445045005374617465206368616E89
:101A260067656420746F3A2000426F6F74757000AA
:101A36004D6F76654261636B00537465704F6666E1
:101A46004C696D69745377697463680049646C65A1
:101A56004261636B005072696E74696E67004D6F08
:101A6600766546726F6E740049646C6546726F6E79
:101A760074004E4F545345540044656661756C744A
:041A86003F3F0000DE
:107800000C94343C0C94513C0C94513C0C94513CE1
:107810000C94513C0C94513C0C94513C0C94513CB4
:107820000C94513C0C94513C0C94513C0C94513CA4
:107830000C94513C0C94513C0C94513C0C94513C94
:107840000C94513C0C94513C0C94513C0C94513C84
:107850000C94513C0C94513C0C94513C0C94513C74
:107860000C94513C0C94513C11241FBECFEFD8E036
:10787000DEBFCDBF11E0A0E0B1E0ECE9FFE702C060
:1078800005900D92A230B107D9F712E0A2E0B1E065
:1078900001C01D92AD30B107E1F70E942D3D0C945F
:1078A000CC3F0C94003C982F959595959595959582
:1078B000905D8F708A307CF0282F295A8091C0000B
:1078C00085FFFCCF9093C6008091C00085FFFCCF60
:1078D0002093C6000895282F205DF0CF982F809127
:1078E000C00085FFFCCF9093C6000895EF92FF92F1
:1078F0000F931F93EE24FF2487018091C00087FD22
:1079000017C00894E11CF11C011D111D81E4E8164B
:1079100082E4F8068FE0080780E0180770F3E09132
:107920000401F091050109958091C00087FFE9CF1E
:107930008091C6001F910F91FF90EF9008950E94D3
:10794000763C982F8091C00085FFFCCF9093C600B5
:1079500091362CF490330CF09053892F089597555D
:10796000892F08951F930E949F3C182F0E949F3CCF
:107970001295107F810F1F9108951F93182F882350
:1079800021F00E94763C1150E1F71F9108951F935A
:10799000182F0E94763C803249F0809103018F5F5E
:1079A000809303018530C1F01F9108958091C0003C
:1079B00085FFFCCF84E18093C6008091C00085FFE5
:1079C000FCCF1093C6008091C00085FFFCCF80E102
:1079D0008093C6001F910895E0910401F091050184
:1079E00009951F9108950E94763C803241F0809164
:1079F00003018F5F80930301853081F008958091AA
:107A0000C00085FFFCCF84E18093C6008091C00058
:107A100085FFFCCF80E18093C6000895E0910401CA
:107A2000F09105010995089540E951E08823A1F0FE
:107A30002D9A28EE33E0FA013197F1F721503040CA
:107A4000D1F72D9828EE33E0FA013197F1F7215064
:107A50003040D1F7815061F708953F924F925F9285
:107A60006F927F928F929F92AF92BF92CF92DF924E
:107A7000EF92FF920F931F93CF93DF93000080E16B
:107A80008093C4001092C50088E18093C10086E015
:107A90008093C2005098589A259A81E00E94143D24
:107AA00024E1F22E9EE1E92E85E9D82E0FE0C02ECA
:107AB00010E1B12EAA24A394B1E49B2EA6E58A2E50
:107AC000F2E57F2EE0E26E2E79E4572E63E5462E36
:107AD00050E5352E0E94763C8033B1F18133B9F107
:107AE000803409F46FC0813409F476C0823409F41B
:107AF00085C0853409F488C0803531F1823521F1A3
:107B0000813511F1853509F485C0863509F48DC0BC
:107B1000843609F496C0843709F403C1853709F423
:107B200072C1863709F466C0809103018F5F80932C
:107B30000301853079F6E0910401F0910501099582
:107B40000E94763C803351F60E94F33CC3CF0E94E2
:107B5000763C803249F78091C00085FFFCCFF092DF
:107B6000C6008091C00085FFFCCF9092C600809136
:107B7000C00085FFFCCF8092C6008091C00085FFC9
:107B8000FCCF7092C6008091C00085FFFCCF609250
:107B9000C6008091C00085FFFCCF5092C600809146
:107BA000C00085FFFCCF4092C6008091C00085FFD9
:107BB000FCCF3092C6008091C00085FFFCCFB09210
:107BC000C60088CF0E94763C863808F4BDCF0E945C
:107BD000763C0E94F33C7ECF0E94763C803809F4CC
:107BE0009CC0813809F40BC1823809F43CC1883942
:107BF00009F48FC080E00E94C73C6CCF84E10E94F2
:107C0000BD3C0E94F33C66CF85E00E94BD3C0E94D3
:107C1000F33C60CF0E94763C809306010E94763C44
:107C2000809307010E94F33C55CF0E94763C80333D
:107C300009F41DC183E00E94BD3C80E00E94C73C66
:107C400049CF0E94763C809309020E94763C809343
:107C5000080280910C028E7F80930C020E94763C79
:107C6000853409F415C18091080290910902892B8D
:107C700089F000E010E00E94763CF801E85FFE4FDA
:107C800080830F5F1F4F80910802909109020817AF
:107C9000190788F30E94763C803209F045CF809125
:107CA0000C0280FF01C16091060170910701660F0F
:107CB000771F7093070160930601A0910802B091AD
:107CC00009021097C9F0E8E0F1E09B01AD014E0F09
:107CD0005F1FF999FECF32BD21BD819180BDFA9A17
:107CE000F99A2F5F3F4FE417F50799F76A0F7B1F4B
:107CF00070930701609306018091C00085FFFCCF5F
:107D0000F092C6008091C00085FFFCCFB092C60003
:107D1000E1CE83E00E94C73CDDCE82E00E94C73CFA
:107D2000D9CE0E94763C809309020E94763C8093D3
:107D300008028091060190910701880F991F909386
:107D40000701809306010E94763C853409F4A6C0A1
:107D500080910C028E7F80930C020E94763C8032D0
:107D600009F0B8CE8091C00085FFFCCFF092C6002C
:107D7000609108027091090261157105B9F140E046
:107D800050E080910C02A82FA170B82FB27011C0E2
:107D9000BB2309F45CC0E0910601F0910701319624
:107DA000F0930701E09306014F5F5F4F46175707B7
:107DB000E8F4AA2369F3F999FECF209106013091E6
:107DC000070132BD21BDF89A90B58091C00085FFB2
:107DD000FCCF9093C6002F5F3F4F30930701209355
:107DE00006014F5F5F4F4617570718F38091C00099
:107DF00085FDE5CE8091C00085FFF8CFE0CE81E023
:107E00000E94C73C67CE0E94763C803209F08CCE3F
:107E10008091C00085FFFCCFF092C6008091C00029
:107E200085FFFCCFE092C6008091C00085FFFCCFAB
:107E3000D092C6008091C00085FFFCCFC092C600E2
:107E40008091C00085FFFCCFB092C60043CEE09188
:107E50000601F091070194918091C00085FFFCCF4D
:107E60009093C6009CCF80E10E94C73C33CE0E9415
:107E7000763C0E94763C182F0E94763C112309F430
:107E800083C0113009F484C08FE00E94C73C22CE29
:107E900080910C02816080930C02E5CE80910C02EF
:107EA000816080930C0259CF809107018823880F4D
:107EB000880B8A2180930B02809106019091070123
:107EC000880F991F90930701809306018091080203
:107ED00080FF09C080910802909109020196909359
:107EE000090280930802F894F999FECF1127E091D6
:107EF0000601F0910701C8E0D1E08091080290915D
:107F00000902103091F40091570001700130D9F34B
:107F100003E000935700E89500915700017001308D
:107F2000D9F301E100935700E89509901990009169
:107F3000570001700130D9F301E000935700E89534
:107F40001395103498F011270091570001700130FB
:107F5000D9F305E000935700E895009157000170B0
:107F60000130D9F301E100935700E895329602976A
:107F700009F0C7CF103011F00296E5CF112480919F
:107F8000C00085FFB9CEBCCE8EE10E94C73CA2CD19
:0C7F900085E90E94C73C9ECDF894FFCF0D
:027F9C00800063
:040000030000780081
:00000001FF