:100000000C9481000C9414040C94ED030C94A9003E
:100010000C94A9000C94A9000C94A9000C94A900BC
:100020000C94A9000C94A9000C94A9000C94A900AC
:100030000C94A9000C943B040C94A9000C94A90006
:100040000C94A3030C94A9000C9401020C94DB0102
:100050000C94A9000C94A9000C94A9000C94A9007C
:100060000C94A9000C94A900BB07BE07C107C407E4
:10007000C707CA07CD07D007F5072A085308940811
:10008000CC082B0957094E03130320032D0320032B
:100090004E033A03130313033A034E0320032D03C5
:1000A000200313034E030000000023002600290054
:1000B00000000000240027002A00000000002500A6
:1000C00028002B00040404040404040402020202B5
:1000D000020203030303030301020408102040800B
:1000E000010204081020010204081020000000088A
:1000F00000020100000304070000000000000000EF
:10010000830911241FBECFEFD8E0DEBFCDBF23E0AF
:10011000A0EAB1E001C01D92AD30B207E1F711E0F5
:10012000A0E0B1E0EAE8F6E102C005900D92A03A45
:10013000B107D9F710E0C1E8D0E004C02197FE0173
:100140000E94380BC038D107C9F70E949A050C9459
:10015000430B0C940000089580E090E00895FC01AA
:10016000538D448D252F30E0842F90E0821B930B1C
:10017000541710F0CF96089501970895FC01918DC2
:10018000828D981761F0828DDF01A80FB11D5D96F9
:100190008C91928D9F5F9F73928F90E008958FEF67
:1001A0009FEF0895FC01918D828D981731F0828D1B
:1001B000E80FF11D858D90E008958FEF9FEF089572
:1001C000FC01918D228D892F90E0805C9F4F821BD6
:1001D00091098F739927089586EE91E00E94E000BF
:1001E00021E0892B09F420E0822F0895FC01848D01
:1001F000DF01A80FB11DA35ABF4F2C91848D90E051
:1002000001968F739927848FA689B7892C93A0892B
:10021000B1898C9180648C93938D848D981306C0E2
:100220000288F389E02D80818F7D80830895EF928D
:10023000FF920F931F93CF93DF93EC0181E0888FA0
:100240009B8D8C8D981305C0E889F989808185FD87
:1002500024C0F62E0B8D10E00F5F1F4F0F73112778
:10026000E02E8C8DE8120CC00FB607FCFACFE8899F
:10027000F989808185FFF5CFCE010E94F600F1CF8C
:100280008B8DFE01E80FF11DE35AFF4FF0820B8FBB
:10029000EA89FB898081806207C0EE89FF896083DB
:1002A000E889F98980818064808381E090E0DF9132
:1002B000CF911F910F91FF90EF900895CF93DF930F
:1002C000EC01888D8823C9F0EA89FB89808185FD4E
:1002D00005C0A889B9898C9186FD0FC00FB607FCAF
:1002E000F5CF808185FFF2CFA889B9898C9185FFF0
:1002F000EDCFCE010E94F600E7CFDF91CF910895B8
:1003000080E090E0892B29F00E94EC0081110C9490
:1003100000000895833081F028F4813099F0823014
:10032000A1F008958730A9F08830B9F08430D1F475
:10033000809180008F7D03C0809180008F778093B3
:100340008000089584B58F7702C084B58F7D84BD09
:1003500008958091B0008F7703C08091B0008F7DA9
:100360008093B00008950895CF93DF93FC01218519
:1003700030E0F901E451FF4F8491F901E852FF4F59
:10038000D491F901EC53FF4FC491CC2379F0811142
:100390000E948A01EC2FF0E0EE0FFF1FEA55FF4F9D
:1003A000A591B491EC91ED2381E009F480E0817096
:1003B000DF91CF9108951F920F920FB60F921124E3
:1003C0002F933F934F935F936F937F938F939F935D
:1003D000AF93BF93EF93FF9386EE91E00E94F600F8
:1003E000FF91EF91BF91AF919F918F917F916F910D
:1003F0005F914F913F912F910F900FBE0F901F90E3
:1004000018951F920F920FB60F9211242F938F936E
:100410009F93EF93FF93E091F601F091F7018081B4
:10042000E091FC01F091FD0182FD12C0908180916C
:10043000FF018F5F8F7320910002821751F0E091CE
:10044000FF01F0E0EA51FE4F958F8093FF0101C05C
:100450008081FF91EF919F918F912F910F900FBE0F
:100460000F901F9018951F93CF93DF93282F30E0A4
:10047000F901E451FF4F8491F901E852FF4FD49103
:10048000F901EC53FF4FC491CC23C9F0162F811111
:100490000E948A01EC2FF0E0EE0FFF1FE654FF4FA1
:1004A000A591B4918FB7F894111105C09C91ED2FCF
:1004B000E095E92302C0EC91ED2BEC938FBFDF9127
:1004C000CF911F910895CF93DF9390E0FC01E85204
:1004D000FF4F2491FC01EC53FF4F8491882361F17D
:1004E00090E0880F991FFC01E055FF4FC591D49112
:1004F000FC01E654FF4FA591B491611109C09FB76B
:10050000F8948881209582238883EC912E230BC058
:10051000623061F49FB7F8943881822F80958323ED
:100520008883EC912E2B2C939FBF06C08FB7F89435
:10053000E8812E2B28838FBFDF91CF910895862FDE
:10054000642F0C9463021F93CF93DF93182FEB015A
:1005500061E00E946302209711F460E004C0CF3F85
:10056000D10539F461E0812FDF91CF911F910C9477
:100570003302E12FF0E0E451FF4FE491E330F9F072
:1005800048F4E130B9F0E230A1F584B5806284BD71
:10059000C8BD34C0E730E9F0E83019F1E43049F57E
:1005A00080918000806280938000D0938B00C09304
:1005B0008A0024C084B5806884BDC7BD1FC08091F7
:1005C0008000806880938000D0938900C093880069
:1005D00015C08091B00080688093B000C093B300D4
:1005E0000DC08091B00080628093B000C093B400D1
:1005F00005C0C038D1050CF0B5CFAFCFDF91CF919A
:100600001F9108958091DC0183704B9984604A9911
:100610008860482F50E04031510560F5FA01ED5BEC
:10062000FF4F0C94380B4091A5015091A6016091A9
:10063000A7017091A8014F5F5F4F6F4F7F4F26C09A
:100640004091A5015091A6016091A7017091A80168
:10065000415051096109710919C04091A50150919A
:10066000A6016091A7017091A8014E5F5F4F6F4F87
:100670007F4F0CC04091A5015091A6016091A70148
:100680007091A80142505109610971094093A50177
:100690005093A6016093A7017093A80190E09595EF
:1006A0008795959587958093DC018091AC01909119
:1006B000AD010497B9F58091A5019091A601A09193
:1006C000A701B091A801863B9340A105B10524F094
:1006D0008091A00181111CC08091A5019091A6017B
:1006E000A091A701B091A801863B9340A105B10557
:1006F000CCF48091A001811115C0F89465EA70E0F6
:100700008AE00E94A30281E08093A00178940AC04D
:10071000F89460E070E08AE00E94A3021092A001C9
:100720007894DACF08950C9402030C9402032FB747
:10073000F8946091E2017091E3018091E40190915D
:10074000E5012FBF08951F920F920FB60F9211244B
:100750002F933F938F939F93AF93BF938091E20129
:100760009091E301A091E401B091E5013091E101A4
:1007700023E0230F2D3720F40196A11DB11D05C0E4
:1007800026E8230F0296A11DB11D2093E10180935D
:10079000E2019093E301A093E401B093E50180911D
:1007A000A1019091A201A091A301B091A401019691
:1007B000A11DB11D8093A1019093A201A093A3015B
:1007C000B093A401BF91AF919F918F913F912F91D1
:1007D0000F900FBE0F901F9018951F920F920FB69B
:1007E0000F9211242F933F934F935F936F937F93B7
:1007F0008F939F93AF93BF93EF93FF93E091040187
:10080000F09105010995FF91EF91BF91AF919F91F3
:100810008F917F916F915F914F913F912F910F90A9
:100820000FBE0F901F9018951F920F920FB60F9248
:1008300011242F933F934F935F936F937F938F93E5
:100840009F93AF93BF93EF93FF93E0910201F091D9
:1008500003010995FF91EF91BF91AF919F918F9106
:100860007F916F915F914F913F912F910F900FBEAC
:100870000F901F9018951F920F920FB60F92112490
:100880002F933F934F935F936F937F938F939F9398
:10089000AF93BF93EF93FF938091DF019091E001BD
:1008A0009093850080938400E091DD01F091DE015A
:1008B0000995FF91EF91BF91AF919F918F917F919A
:1008C0006F915F914F913F912F910F900FBE0F90BD
:1008D0001F9018958091A901811104C05F9881E053
:1008E0008093A901289A299A83E290E00197F1F771
:1008F00029988091AA019091AB0101979093AB0147
:100900008093AA0108958091A901811104C05F9884
:1009100081E08093A9012898299A83E290E00197C9
:10092000F1F729988091AA019091AB0101969093DB
:10093000AB018093AA010895E898E2E0F1E083EB2F
:1009400091E091838083E9989383828308956F92E5
:100950007F928F929F92BF92CF92DF92EF92FF92FF
:100960000F931F93CF93DF93EC016A017B011E82EB
:100970008C898B7F8C8BEC85FD850190F081E02D3F
:10098000CE010C960995B82E8C8986958170B81683
:1009900051F00E9497036E877F87888B998B9C8983
:1009A00082E0892723C00E9497030E851F8528892E
:1009B00039893B014C01601A710A820A930A4A89FB
:1009C0005B8960E070E0641675068606970678F02D
:1009D0009C899170B91659F00E9497036E877F87A2
:1009E000888B998B9C8981E0892784608C8B9C8182
:1009F0008C89911101C0809581708D839F818D813B
:100A0000911109C08823C9F081E08F831886198667
:100A10001A861B8612C0882369F088859985AA8565
:100A2000BB85C80ED91EEA1EFB1EC886D986EA867B
:100A3000FB8603C081E08E831F82DF91CF911F91DF
:100A40000F91FF90EF90DF90CF90BF909F908F908D
:100A50007F906F900895CF92DF92EF92FF920F9365
:100A60001F93CF93DF936C017A018B01C0E0D0E03C
:100A7000CE15DF0589F0D8016D918D01D601ED917C
:100A8000FC910190F081E02DC6010995892B11F4AC
:100A90007E0102C02196ECCFC701DF91CF911F915B
:100AA0000F91FF90EF90DF90CF9008950E943E0B42
:100AB000CF93DF93EC0162E088810E94630288811A
:100AC0008D8B1C8ACE010C960E94B401882319F0EC
:100AD0008C8983608C8B0E9497036E877F87888BBD
:100AE000998B8A819B819B8B8A8BDF91CF91089513
:100AF000CF93DF93C82FD62F61E00E9463026D2F42
:100B00008C2FDF91CF910C9433026115710579F030
:100B1000FB0101900020E9F73197AF01461B570B0D
:100B2000DC01ED91FC910280F381E02D099480E0DD
:100B300090E00895789484B5826084BD84B5816026
:100B400084BD85B5826085BD85B5816085BD809198
:100B50006E00816080936E00109281008091810010
:100B60008260809381008091810081608093810008
:100B7000809180008160809380008091B1008460CA
:100B80008093B1008091B00081608093B00080912B
:100B90007A00846080937A0080917A0082608093EA
:100BA0007A0080917A00816080937A0080917A0047
:100BB000806880937A001092C1001092C702109250
:100BC000C8021092C9021092CA02109285021092B5
:100BD000860210928702109288020E9497036B018E
:100BE0007C012B013C0128EB420E2BE0521E611CC4
:100BF000711C0E9497036C157D058E059F0528F0DA
:100C00004616570668067906A0F786EE91E090939F
:100C1000C6028093C502E091F601F091F70182E0EF
:100C20008083E091F201F091F3011082E091F401F0
:100C3000F091F50180E180831092FE01E091FA01CC
:100C4000F091FB0186E08083E091F801F091F901D9
:100C5000808180618083E091F801F091F9018081C9
:100C600088608083E091F801F091F90180818068CB
:100C70008083E091F801F091F90180818F7D80837C
:100C80000E94970360938502709386028093870287
:100C90009093880260E271E08091C5029091C60253
:100CA0000E9485050E9497036B017C012B013C018A
:100CB0008AE0480E511C611C711C0E9497036C1540
:100CC0007D058E059F0528F04616570668067906AD
:100CD000A0F7C1E0C09399021092AD011092AC014F
:100CE000C093A00161E087E00E94780560E089E0A0
:100CF0000E94780560E088E00E94780561E08AE063
:100D00000E94630261E083E10E94780561E08BE06C
:100D10000E94630260E08DE00E94780560E08EE052
:100D20000E94630265EA70E08AE00E94A30260E02C
:100D300070E08BE00E94A30287EF92E00E945805CA
:100D400081EE92E00E9458058BEC92E00E945805DB
:100D50008091D40181110AC01092D0011092D1016A
:100D60001092D2011092D301C093D4018091C80196
:100D700081110BC01092C4011092C5011092C601DE
:100D80001092C70181E08093C801BB24B39455E958
:100D9000E52E53E0F52E63E9C62E63E0D62E3FB76D
:100DA000F8948091A1019091A201A091A301B0912A
:100DB000A40126B5A89B05C02F3F19F00196A11DDF
:100DC000B11D3FBFBA2FA92F982F8827820F911DE1
:100DD000A11DB11D42E0880F991FAA1FBB1F4A9594
:100DE000D1F74091AE015091AF016091B001709187
:100DF000B1012C013D01441A550A660A770A809315
:100E0000AE019093AF01A093B001B093B1016624FD
:100E100077248091D0019091D101A091D201B0911D
:100E2000D301840D951DA61DB71D8093D00190930D
:100E3000D101A093D201B093D3018091C4019091CC
:100E4000C501A091C601B091C701840D951DA61DD5
:100E5000B71D8093C4019093C501A093C601B093C0
:100E6000C701B301A20187EF92E00E94A704B3017A
:100E7000A20181EE92E00E94A704B301A2018BECD3
:100E800092E00E94A7048091B301811108C089B14A
:100E900086FB882780F98093B201B092B30189B1B3
:100EA00086FB882780F99091B201981759F089B193
:100EB00086FB882780F98093B2014E990EC003E02B
:100EC00010E018C08091FC02882369F04E9B08C096
:100ED0004E9B09C001E010E00DC004E010E00AC024
:100EE00000E010E007C08091E602882309F4F1C118
:100EF00002E010E08091C4019091C501A091C6016B
:100F0000B091C7018135934CA105B105D8F080910E
:100F1000C301882341F060E070E08BE00E94A302EF
:100F20001092C30107C065EA70E08BE00E94A30243
:100F3000B092C3011092C4011092C5011092C60173
:100F40001092C701C091AC01D091AD018091000118
:100F5000909101018C179D07B9F162E371E086EE73
:100F600091E00E948505C830D105E8F4FE01EC5CF3
:100F7000FF4F0C94380B65E471E017C06CE471E02E
:100F800014C065E571E011C068E671E00EC061E76C
:100F900071E00BC06AE771E008C064E871E005C069
:100FA0006EE871E002C065E971E086EE91E00E94B2
:100FB0008505E091E601F091E7010190F081E02DD7
:100FC0006AE086EE91E00995D0930101C09300019B
:100FD000C091AC01D091AD01C730D10508F0DFCE92
:100FE000FE01E45CFF4F0C94380B8091D002882303
:100FF00009F18091BB01811102C0B092BB018091C7
:10100000BB018823B9F08091D0019091D101A091CA
:10101000D201B091D301853D9043A105B10550F0B7
:101020000E9483041092D0011092D1011092D2013B
:101030001092D3018091D002811151C18091BB01E6
:10104000882309F44CC11092BB011092AB0110929D
:10105000AA0142C12D9A0330110519F41092C20160
:101060000AC00430110519F4B092C20104C0023064
:10107000110509F431C1309927C18091D002811145
:101080000FC08091D0019091D101A091D201B09177
:10109000D3018B3F9105A105B10508F415C130C1FD
:1010A000C2E0D0E011C18091D002882379F0809114
:1010B000D0019091D101A091D201B091D301853D91
:1010C0009043A105B10508F4FFC0E6C01092A50148
:1010D0001092A6011092A7011092A8011092BC01D3
:1010E0001092BD011092BE011092BF011092AB018F
:1010F0001092AA01F0920301E0920201809169002E
:101100008C7F816080936900E89AD0920501C0923B
:10111000040180916900837F846080936900E99A6B
:101120002D98C3E0D0E0D0C00330110519F410921F
:10113000C2010CC00430110519F4B092C20106C0FE
:101140000230110519F40E949C04C6C08091A501CB
:101150009091A601A091A701B091A8014091BC0176
:101160005091BD016091BE017091BF018417950738
:10117000A607B70709F4A8C08093BC019093BD01EE
:10118000A093BE01B093BF010297A105B1050CF475
:101190009BC0C4E0D0E098C02D984090A50150902D
:1011A000A6016090A7017090A8018091BC01909168
:1011B000BD01A091BE01B091BF01481659066A0653
:1011C0007B06C1F04092BC015092BD016092BE010D
:1011D0007092BF01C301B2010E94040A20E030E016
:1011E00048E851E40E94900A0E94020B7093C101EA
:1011F0006093C0010091C0011091C1018091AA01CA
:101200009091AB010817190771F08017910714F43A
:101210000E9483048091AA019091AB0108171907DD
:1012200014F40E946A0481E8481689EA580683E0AB
:101230006806710408F448C065EA70E08AE00E941C
:10124000A3020E949C048091C201882309F444C037
:101250001092C20137C02D980115110599F1013086
:10126000110559F18091AA019091AB01813197420A
:1012700030F05F9A1092A901C6E0D0E025C08091BD
:10128000D0019091D101A091D201B091D3018B3FB7
:101290009105A105B105C0F00E9483041092D00110
:1012A0001092D1011092D2011092D3010DC00115FC
:1012B000110541F00130110519F4B092C20102C0CC
:1012C0002D9A02C0C1E0D0E0D093AD01C093AC0133
:1012D00066CD05E010E00ECEC5E0D0E0F5CF809100
:1012E000D0019091D101A091D201B091D3018B3F57
:1012F0009105A105B10540F38091BB018111E4CFB7
:101300000E946A04CBCFE6EEF1E01382128288EEEF
:1013100093E0A0E0B0E084839583A683B7838AE05E
:1013200091E09183808385EC90E09587848784ECBD
:1013300090E09787868780EC90E0918B808B81ECA2
:1013400090E0938B828B82EC90E0958B848B86EC83
:1013500090E0978B868B118E128E138E148EE3E89D
:10136000F2E0168217821086118612861386148682
:10137000158616861786108A118A128A138A148A8D
:10138000158AE7EFF2E084E090E09183808368E0E3
:1013900070E07383628314822CE131E03587248707
:1013A00016861786108A118A8AE090E0938B828BCA
:1013B000148A158AE1EEF2E045E050E05183408363
:1013C0007383628314823587248716861786108A72
:1013D000118A938B828B148A158AEBECF2E06CE015
:1013E00070E0718360835383428341E04483358797
:1013F000248716861786108A118A938B828B148A0B
:10140000158A0895E89409C097FB3EF4909580955D
:10141000709561957F4F8F4F9F4F9923A9F0F92FBA
:1014200096E9BB279395F695879577956795B79538
:10143000F111F8CFFAF4BB0F11F460FF1BC06F5F1E
:101440007F4F8F4F9F4F16C0882311F096E911C030
:10145000772321F09EE8872F762F05C0662371F051
:1014600096E8862F70E060E02AF09A95660F771F65
:10147000881FDAF7880F9695879597F9089597F959
:101480009F6780E870E060E008959FEF80EC08952A
:1014900000240A9416161706180609060895002453
:1014A0000A9412161306140605060895092E0394CD
:1014B000000C11F4882352F0BB0F40F4BF2B11F441
:1014C00060FF04C06F5F7F4F8F4F9F4F089557FDA0
:1014D0009058440F551F59F05F3F71F04795880FA2
:1014E00097FB991F61F09F3F79F087950895121639
:1014F00013061406551FF2CF4695F1DF08C01616E5
:1015000017061806991FF1CF869571056105089495
:101510000895E894BB2766277727CB0197F90895AC
:101520000E94A40A0C94560A0E944F0A58F00E9486
:10153000480A40F029F45F3F29F00C943F0A51110A
:101540000C948A0A0C94450A0E94670A68F399234E
:10155000B1F3552391F3951B550BBB27AA276217AF
:101560007307840738F09F5F5F4F220F331F441FBC
:10157000AA1FA9F335D00E2E3AF0E0E832D09150F0
:101580005040E695001CCAF72BD0FE2F29D0660FDD
:10159000771F881FBB1F261737074807AB07B0E820
:1015A00009F0BB0B802DBF01FF2793585F4F3AF026
:1015B0009E3F510578F00C943F0A0C948A0A5F3FD5
:1015C000E4F3983ED4F3869577956795B795F795AC
:1015D0009F5FC9F7880F911D9695879597F9089594
:1015E000E1E0660F771F881FBB1F62177307840730
:1015F000BA0720F0621B730B840BBA0BEE1F88F73F
:10160000E09508950E94090B6894B1110C948A0A20
:1016100008950E946F0A88F09F5798F0B92F992774
:10162000B751B0F0E1F0660F771F881F991F1AF0CD
:10163000BA95C9F714C0B13091F00E94890AB1E09F
:1016400008950C94890A672F782F8827B85F39F09E
:10165000B93FCCF3869577956795B395D9F73EF466
:1016600090958095709561957F4F8F4F9F4F08950E
:10167000EE0FFF1F0590F491E02D099481E090E0BA
:0A168000F8940C94430BF894FFCF8C
:10168A000700B301B3010000000017012B05AF00EA
:10169A005E01E000BE00D20000000000B4019F021B
:1016AA00564D4450565F317C315F564D4450560D6D
:1016BA000A005374617465206368616E676564200B
:1016CA00746F3A2000426F6F747570004D6F7665C3
:1016DA004261636B00537465704F66664C696D694D
:1016EA00745377697463680049646C654261636B1B
:1016FA00005072696E74696E67004D6F7665467246
:10170A006F6E740049646C6546726F6E74004E4F5A
:10171A00545345540044656661756C743F3F00003C
:00000001FF
