:020000040800F2
:10000000A01100200101000837200008F71B00089C
:10001000491F0008E70100084B44000800000000E9
:10002000000000000000000000000000E1240008C3
:10003000C902000800000000B52400082D250008B2
:100040001B0100081B0100081B0100081B01000820
:100050001B0100081B0100081B0100081B01000810
:100060001B0100081B0100081B0100081B01000800
:100070001B0100081B0100081B0100081B010008F0
:100080001B0100081B0100081B0100081B010008E0
:10009000794300081B0100081B0100081B01000830
:1000A0001B0100081B0100081B0100081B010008C0
:1000B000112600081B0100081B0100081B01000895
:1000C0001B0100081B0100081B0100081B010008A0
:1000D0001B0100081B0100081B0100081B01000890
:1000E0001B0100081B0100081B010008DFF80CD0F1
:1000F00000F03CF8004800476D440008A0110020C3
:100100000648804706480047FEE7FEE7FEE7FEE7B1
:10011000FEE7FEE7FEE7FEE7FEE7FEE7B92500089B
:10012000ED00000840EA01039B0703D009E008C97D
:10013000121F08C0042AFAD203E011F8013B00F8AC
:10014000013B521EF9D27047D2B201E000F8012BF8
:10015000491EFBD270470022F6E710B513460A4647
:1001600004461946FFF7F0FF204610BD064C074D28
:1001700006E0E06840F0010394E807009847103477
:10018000AC42F6D3FFF7B6FF0C4500082C4500083B
:1001900070B58C1810F8015B15F0070301D110F849
:1001A000013B2A1106D110F8012B03E010F8016B76
:1001B00001F8016B5B1EF9D12B0705D40023521EF9
:1001C0000DD401F8013BFAE710F8013BCB1A921C61
:1001D00003E013F8015B01F8015B521EF9D5A1425F
:1001E000D8D3002070BD00BFFEE70346042B15D016
:1001F00007DC7BB1012B0ED0022B0DD0032B12D1CB
:100200000BE0202B0BD0212B0AD0222B09D0232B43
:1002100009D107E008E007E006E005E004E003E0BC
:1002200002E001E000E000BF00BF002070470020B6
:100230007047000010B500220449054802F054FC44
:100240000449034802F049FC002010BD6A0D00205B
:1002500094020020380D002070B505460C460120A0
:10026000074908700749206808602946064822683F
:10027000FFF758FF054802F00CFC002070BD00009D
:10028000680000206C000020380D0020940200203F
:100290002DE9F04104460D4600260A48D0F81872B0
:1002A000D7F8140210B10120BDE8F0812A4621469A
:1002B000044802F019FC034802F068FC0646304688
:1002C000F2E70000940200207047704701460129C0
:1002D00001DB00207047024830F81100FAE7000007
:1002E0001400002001461A2901DB00207047024853
:1002F00030F81100FAE700000C02002070B50A483F
:100300000468001D0568001D0668344454B10822C5
:100310000649204601F071FC0422044910312846A8
:1003200001F06BFC70BD0000E8F7FF1F4E000020DD
:100330002DE9F847034600240020002584460027C5
:1003400000226EE14FF0010808FA02F4D1F80080B3
:1003500008EA0400A0427DD1DFF8D0A2D1F80480E1
:10036000A8EB0A09D0453AD014DCB8F1030F50D0FD
:1003700009DCB8F1000F31D0B8F1010F1CD0B8F191
:10038000020F49D120E0B8F1110F18D0B8F1120FC7
:1003900042D11EE0B9F5881F25D006DCB9F5803FB3
:1003A00020D0B9F5801F37D11AE0B9F5001F18D059
:1003B000B9F5041F30D117E0D1F80CC02DE0D1F809
:1003C0000C8008F1040C28E0D1F80C8008F1080C2E
:1003D00023E0D1F80C8008F10C0C1EE000BF00BF38
:1003E00000BF00BF00BF00BFD1F80880B8F1000F08
:1003F00002D14FF0040C0BE0D1F80880B8F1010FE6
:1004000003D14FF0080C1C6102E04FF0080C5C6156
:1004100003E04FF0000C00E000BF00BFFF2801D850
:10042000984601E003F104084646FF2802D84FEA47
:10043000820803E0A2F108084FEA88084746D6F888
:1004400000804FF00F0909FA07F928EA09080CFAA9
:1004500007F900E088E048EA0908C6F80080D1F80A
:10046000048008F08058B8F1805F7DD100BFDFF8CC
:10047000C081D8F8188048F00108DFF8B491C9F8B5
:100480001880C846D8F8188008F00108CDF8008018
:1004900000BF00BF4FEAB9384FEA920958F8295017
:1004A0004FEA82784FEA18794FF00F0808FA09F8F6
:1004B00025EA0805DFF87C81434502D14FF00008AA
:1004C00016E0DFF87481434502D14FF001080FE0D8
:1004D000DFF86881434502D14FF0020808E0DFF8F9
:1004E0006081434502D14FF0030801E04FF004085A
:1004F0004FEA82794FEA197908FA09F848EA0505BE
:10050000DFF840814FEA920948F82950D1F8048079
:1005100008F48038B8F5803F0AD1DFF82C81D8F88C
:10052000008048EA0008DFF82091C9F8008009E05F
:10053000DFF81481D8F8008028EA0008DFF8089175
:10054000C9F80080D1F8048008F40038B8F5003FFD
:1005500010D1DFF8F48008F10408D8F8008048EAE8
:100560000008DFF8E49000E05AE009F10409C9F856
:1005700000800DE0DFF8D08008F10408D8F8008092
:1005800028EA0008DFF8C09009F10409C9F80080E2
:10059000D1F8048008F48018B8F5801F0ED1DFF878
:1005A000A88008F10808D8F8008048EA0008DFF8B9
:1005B000989009F10809C9F800800DE0DFF88880FB
:1005C00008F10808D8F8008028EA0008DFF87890D9
:1005D00009F10809C9F80080D1F8048008F400186E
:1005E000B8F5001F0ED1DFF8608008F10C08D8F8CC
:1005F000008048EA0008DFF8509009F10C09C9F8BA
:1006000000800DE0DFF8408008F10C08D8F8008089
:1006100028EA0008DFF8309009F10C09C9F80080D9
:10062000521C102AFFF48EAEBDE8F88700001110AE
:100630000010024000080140000C01400010014081
:10064000001401400800014000040140C2684A4013
:10065000C26070470AB1016101E00B040361704799
:1006600001480068704700008400002003480068CB
:100670000349097808440149086070478400002054
:100680008C00002010B50848006840F010000649B2
:100690000860032000F0A6F8002000F007F800F042
:1006A0002BF8002010BD00000020024070B5044669
:1006B0000E4800784FF47A71B1FBF0F00C490968EC
:1006C000B1FBF0F5284600F0CBFF08B1012070BD6A
:1006D000102C07D200222146501E00F044F8054895
:1006E000046001E00120F2E70020F0E78C00002028
:1006F000900000208800002008B500BF11488069E4
:1007000040F001000F4988610846806900F001004F
:10071000009000BF00BF00BF0846C06940F0805095
:10072000C8610846C06900F08050009000BF00BF5B
:1007300000BF0549486820F0E06040F080704860E4
:1007400000BF08BD001002400000014000BF00F0E3
:100750001F02012191404209920002F1E022C2F8F9
:10076000001100BF70472DE9F05F80460D46164628
:10077000002701F061FC074639462A46334601F05E
:100780000700C0F1070ABAF1040F02D94FF0040ABA
:1007900001E0C0F1070AD14600F1040ABAF1070FDF
:1007A00002D24FF0000A01E0A0F1030AD4464FF054
:1007B000010A0AFA09FAAAF1010A0AEA020A0AFA7D
:1007C0000CFA4FF0010B0BFA0CFBABF1010B0BEA2F
:1007D000030B4AEA0B042146404601F035FCBDE814
:1007E000F09F000000BF00F00702064B19684FF6AB
:1007F000FF031940044B0B4343EA0221014B1960EC
:1008000000BF70470CED00E00000FA0570B505462A
:100810000C46002104F08000802806D104F07F06F9
:1008200005F1280000EB461103E005F50A7000EB26
:1008300044111AB9002088728B8004E0012088726C
:10084000CB80180C0881002070BD704770B504463D
:100850000D4604F1280101EB45114A692946D4F8F7
:100860005C0402F03DFC70BD70B504460D4604F515
:100870000A7101EB45114A692946D4F85C0402F07B
:100880009CFC70BD70B504460D46002605F0800046
:10089000802806D105F07F0104F1280000EB411605
:1008A00005E005F07F0104F50A7000EB411605F044
:1008B0007F00307005F08000C009707000BF94F8B0
:1008C0002804012801D1022070BD012084F82804E9
:1008D00000BF3146206803F0E0F900BF002084F833
:1008E000280400BF00BFEFE770B504460D460026A0
:1008F00005F08000802806D105F07F0104F1280072
:1009000000EB411603E004F50A7000EB45160020E9
:10091000B07005F07F003070C5F3C010707000BF7C
:1009200094F82804012801D1022070BD012084F828
:10093000280400BF3146206803F0DCFA00BF002025
:1009400084F8280400BF00BFEFE7024601F00F0360
:1009500002F50A7000EB4310808B80B270472DE9DE
:10096000F04704460D46174698464FF0000900260A
:1009700005F08000802806D105F07F0104F12800F1
:1009800000EB411605E005F07F0104F50A7000EB6D
:10099000411605F07F00307005F08000C0097070CE
:1009A000376186F8038000BF94F82804012802D13B
:1009B0000220BDE8F087012084F8280400BF3146FA
:1009C000206802F091FF00BF002084F8280400BFD7
:1009D0004846EEE72DE9F04105460E461746984693
:1009E000002406F07F0105F50A7000EB41146761F1
:1009F000C4F818800020E061607006F07F0020706D
:100A000006F07F0020B92146286803F010FB03E0C0
:100A10002146286803F00BFB0020BDE8F08170B58B
:100A200004460D46002605F08000802806D105F01A
:100A30007F0104F1280000EB411603E004F50A7081
:100A400000EB45160120B07005F07F003070C5F353
:100A5000C010707000BF94F82804012801D1022052
:100A600070BD012084F8280400BF3146206803F0DF
:100A70009BFA05F07F0020B904F22C41206803F0B6
:100A800036FA00BF002084F8280400BF00BFE7E763
:100A90002DE9F04105460E4617469846002406F01B
:100AA0007F0105F1280000EB41146761C4F818804C
:100AB0000020E0610120607006F07F00207006F0E9
:100AC0007F0020B92146286803F0B1FA03E02146EF
:100AD000286803F0ACFA0020BDE8F08110B50446A8
:100AE000206803F051FC00F40040B0F5004F02D143
:100AF000204601F0BDFA206803F046FC00F4806057
:100B0000B0F5806F0ED12068B0F8440020F480600A
:100B10002168A1F84400204600F044F90021204655
:100B200000F060F9206803F02FFC00F48040B0F57D
:100B3000804F07D12068B0F8440020F4804021683D
:100B4000A1F84400206803F01FFC00F40050B0F549
:100B5000005F07D12068B0F8440020F400502168FD
:100B6000A1F84400206803F00FFC00F48050B0F5B9
:100B7000805F1AD12068B0F8400020F0040021689E
:100B8000A1F840002068B0F8400020F0080021687B
:100B9000A1F84000204600F017F92068B0F84400A2
:100BA00020F480502168A1F84400206803F0ECFB99
:100BB00000F40060B0F5006F20D12068B0F840006C
:100BC00040F008002168A1F840002068B0F8440017
:100BD00020F400602168A1F844002068B0F84000CB
:100BE00040F004002168A1F84000206803F0CCFB2D
:100BF000C0F3003010B9204600F036F9206803F049
:100C0000C3FB00F40070B0F5007F0AD12068B0F893
:100C1000440020F400702168A1F84400204600F050
:100C2000DAF8206803F0B0FB00F48070B0F5807F44
:100C300007D12068B0F8440020F480702168A1F842
:100C4000440010BD30B585B00446002514B901201C
:100C500005B030BD94F8290428B9002084F8280490
:100C6000204600F07DF8032084F82904206803F072
:100C700033F9142204F110016846FFF753FA94E89F
:100C80000F0003F006F80021206803F0B3FB0025F5
:100C900025E0012104F1280000EB4510417004F12A
:100CA000280000EB4510057004F1280000EB45100A
:100CB0008581002104F1280000EB4510C17004F18A
:100CC000280000EB4510016104F1280000EB4510FD
:100CD000416104F1280000EB451081616D1C0F2D6E
:100CE000D7D3002524E0002104F50A7000EB45105D
:100CF000417004F50A7000EB4510057004F12800FE
:100D000000EB4510858104F50A7000EB4510C170B9
:100D100004F50A7000EB4510016104F50A7000EB60
:100D20004510416104F50A7000EB451081616D1CAE
:100D30000F2DD8D3142204F110016846FFF7F2F901
:100D400094E80F0003F0B9F8002084F82400012093
:100D500084F82904206803F0ADF8002078E700004B
:100D600038B504460D492068884215D100BF0C48AB
:100D7000C06940F400000A49C8610846C06900F42F
:100D80000000009000BF00BF002211461420FFF7B2
:100D9000EAFC1420FFF7DAFC38BD0000005C0040DC
:100DA0000010024070B504460125A068022801D059
:100DB000FFF78BFA2946D4F85C0402F00FFBD4F855
:100DC0005C0402F0D1FA70BD10B50446D4F85C049E
:100DD00002F0ECFA10BD10B50446D4F85C0402F041
:100DE000ECFA10BD70B504460D4600BF94F8280417
:100DF000012801D1022070BD012084F8280400BF21
:100E000084F824502946206803F0F7FA00BF002038
:100E100084F8280400BF00BFEDE710B5044604F2D3
:100E20002C41D4F85C0402F0F0FA10BD10B5044671
:100E300000BF94F82804012801D1022010BD012030
:100E400084F8280400BF01212046FFF7FEFC20683B
:100E500003F02DF8206803F083FA00BF002084F827
:100E6000280400BF00BFE9E710B50446D4F85C04CD
:100E700002F024FBA06928B10348006840F0060096
:100E80000149086010BD000010ED00E0F8B504460F
:100E900000260025207800F0010000286BD00027F4
:100EA0004348C06900F0805070B900BF4048C06935
:100EB00040F080503E49C8610846C06900F080504B
:100EC000009000BF00BF01273A48006800F480701E
:100ED000B0B93848006840F4807036490860FFF7C0
:100EE000BFFB064606E0FFF7BBFB801B642801D969
:100EF0000320F8BD2F48006800F480700028F2D06D
:100F00002B48006A00F440752DB3A08800F44070AF
:100F1000A84220D02648006A20F4407501202649C6
:100F20000860002008602248056205F0010090B1C9
:100F3000FFF796FB064608E0FFF792FB801B41F2A5
:100F40008831884201D90320D3E71948006A00F0AC
:100F500002000028F0D01648006A20F44070616852
:100F6000084313490862012F04D10846C06920F0E4
:100F70008050C86100BF207800F00200022807D12D
:100F80000B48406820F44040A16808430849486085
:100F9000207800F01000102807D10548406820F4A0
:100FA0008000E1680843024948600020A1E7000092
:100FB00000100240007000404004424270B50446F8
:100FC0000D4600266D48006800F00700A8420ED2CA
:100FD0006A48006820F0070028436849086008460E
:100FE000006800F00700A84201D0012070BD207801
:100FF00000F0020002281DD1207800F0040004282F
:1010000005D15F48406840F4E0605D494860207861
:1010100000F00800082805D15948406840F46050A5
:10102000574948605648406820F0F000A1680843DE
:1010300053494860207800F0010000285DD06068C6
:10104000012806D14E48006800F4003090B9012014
:10105000CCE76068022806D14948006800F00070BB
:1010600040B90120C2E74648006800F0020008B914
:101070000120BBE74248406820F003006168084354
:101080003F494860FFF7ECFA06466068012810D136
:1010900008E0FFF7E5FA801B41F28831884201D968
:1010A0000320A3E73648406800F00C000428F0D184
:1010B00023E06068022810D108E0FFF7D1FA801B16
:1010C00041F28831884201D903208FE72C484068DB
:1010D00000F00C000828F0D10FE008E0FFF7C0FA9C
:1010E000801B41F28831884201D903207EE72448E1
:1010F000406800F00C000028F0D12048006800F0A3
:101100000700A8420ED91D48006820F007002843B8
:101110001A4908600846006800F00700A84201D09C
:10112000012063E7207800F00400042807D1144868
:10113000406820F4E060E168084311494860207885
:1011400000F00800082808D10D48406820F46050DD
:10115000216940EAC1000A49486000F017F80849CF
:101160004968C1F30311074A515CC8400649086049
:101170000020FFF79BFA002038E700000020024023
:1011800000100240F444000890000020F0B585B043
:101190000FF26C0C9CE8E01001A8A0E8E0101CA580
:1011A0002D68009500210022002300240020194D05
:1011B000696801F00C05F5B1042D02D0082D19D194
:1011C00001E0154819E001ADC1F38346AC5D01F4BF
:1011D000803555B10F4D6D68C5F340451DF80520AC
:1011E0000D4D6543B5FBF2F302E00C4D04FB05F336
:1011F000184602E000BF084800BF00BF05B0F0BDC0
:1012000002030405060708090A0B0C0D0E0F101047
:10121000010200000010024000127A0000093D00A7
:10122000F8B504460025207800F00100002878D0A9
:10123000F848406800F00C0004280CD0F5484068DD
:1012400000F00C00082811D1F248406800F480300A
:10125000B0F5803F0AD1EF48006800F40030002864
:101260005FD0606800285CD10120F8BD00BF6068D5
:10127000B0F5803F06D1E748006840F48030E5498A
:10128000086028E0606858B9E248006820F48030BF
:10129000E04908600846006820F4802008601AE0F1
:1012A0006068B0F5A02F0BD1DA48006840F48020C8
:1012B000D84908600846006840F4803008600AE0B9
:1012C000D448006820F48030D2490860084600689D
:1012D00020F48020086000BF606888B1FFF7C0F983
:1012E000054606E0FFF7BCF9401B642801D903203E
:1012F000BBE7C848006800F400300028F2D010E0D6
:10130000FFF7AEF9054606E0FFF7AAF9401B64288F
:1013100001D90320A9E7BF48006800F40030002885
:10132000F2D1207800F00200022857D1B948406875
:1013300000F00C0050B1B748406800F00C000828DD
:1013400018D1B448406800F4803098B9B1480068BA
:1013500000F0020020B12069012801D0012084E7BB
:10136000AC48006820F0F800616940EAC100A94972
:10137000086033E02069E8B10120A7490860FFF761
:101380006FF9054606E0FFF76BF9401B022801D90B
:1013900003206AE79F48006800F002000028F2D0AE
:1013A0009C48006820F0F800616940EAC100994952
:1013B000086013E0002098490860FFF751F90546DE
:1013C00006E0FFF74DF9401B022801D903204CE746
:1013D0009048006800F002000028F2D1207800F068
:1013E000080008282DD1A069B8B101208B490860F8
:1013F000FFF736F9054606E0FFF732F9401B0228F1
:1014000001D9032031E78348406A00F00200002838
:10141000F2D0012001F050F813E000207F4908606D
:10142000FFF71EF9054606E0FFF71AF9401B0228F0
:1014300001D9032019E77748406A00F0020000282C
:10144000F2D1207800F00400042873D100267148FE
:10145000C06900F0805070B900BF6E48C06940F0AC
:1014600080506C49C8610846C06900F08050009007
:1014700000BF00BF01266A48006800F48070B0B960
:101480006748006840F4807065490860FFF7E8F835
:10149000054606E0FFF7E4F8401B642801D9032065
:1014A000E3E65F48006800F480700028F2D000BFD7
:1014B000E068012806D15748006A40F0010055490C
:1014C000086227E0E06858B95248006A20F001003D
:1014D000504908620846006A20F00400086219E0DA
:1014E000E06805280BD14B48006A40F004004949E8
:1014F00008620846006A40F0010008620AE04548B8
:10150000006A20F00100434908620846006A20F0A2
:101510000400086200BFE068A0B1FFF7A1F805462B
:1015200009E0FFF79DF8401B41F28831884202D95B
:1015300003209AE622E03748006A00F00200002803
:10154000EFD012E0FFF78CF8054608E0FFF788F8C7
:10155000401B41F28831884201D9032085E62D489D
:10156000006A00F002000028F0D1012E05D12948C0
:10157000C06920F080502749C86100BFE069C8B346
:101580002448406800F00C00082860D0E069022878
:1015900048D1002020490866FFF762F8054606E0BA
:1015A000FFF75EF8401B022801D903205DE61948C9
:1015B000006800F000700028F2D1206AB0F5803F8A
:1015C00007D11448406820F40030A168084311494D
:1015D0004860D4E9080108430E49496821F47411B0
:1015E00008430C49486001200B490866FFF738F8AA
:1015F000054607E02DE0FFF733F8401B022801D92C
:10160000032032E60348006800F000700028F2D0A2
:101610001FE00000001002400000424280044242ED
:101620000070004000200C490866FFF719F80546D5
:1016300006E0FFF715F8401B022801D9032014E645
:101640000648006800F000700028F2D101E0012097
:101650000BE6002009E600000000424200100240B4
:1016600070B504462546681EB0F1807F01D3012085
:101670000FE0681E4FF0E02148610F214FF0FF306E
:1016800000F0E2FC00204FF0E021886107200861B3
:10169000002070BD70477047024600BF92F83C00C2
:1016A000012801D102207047012082F83C0000BFD0
:1016B000022082F83D001068406820F07000136836
:1016C0005860106840680B681843136858601068C9
:1016D000806820F0800013689860106880684B680C
:1016E000184313689860012082F83D0000BF002075
:1016F00082F83C0000BF00BFD5E710B504460CB926
:10170000012010BD94F83D0028B9002084F83C0069
:10171000204600F00DF8022084F83D00211D2068CD
:1017200000F082FF012084F83D000020E9E700007E
:1017300038B504462068B0F1804F15D100BF0B4882
:10174000C06940F001000949C8610846C06900F05D
:101750000100009000BF00BF002211461C20FFF7CF
:1017600002F81C20FEF7F2FF38BD00000010024016
:101770002DE9F04104460D46002600BF94F83C00D8
:10178000012802D10220BDE8F081012084F83C004C
:1017900000BF022084F83D002068866826F07706A6
:1017A00026F47F4620688660286850283BD00CDCF1
:1017B000202860D004DC002853D0102865D155E0E3
:1017C00030285DD0402860D141E0602835D07028B5
:1017D0000DD0B0F5805F03D0B0F5005F55D115E0B6
:1017E0002068806820F00700216888604EE0D5E915
:1017F00002136A68206800F05FFF2068866826F0A0
:10180000770646F07706206886603FE0D5E9021348
:101810006A68206800F050FF2068806840F48040CB
:101820002168886032E0EA686968206801F022F87F
:101830005021206800F04CFF28E0EA6869682068C1
:1018400001F02DF86021206800F042FF1EE0EA68F8
:101850006968206801F00EF84021206800F038FF28
:1018600014E00021206800F033FF0FE01021206811
:1018700000F02EFF0AE02021206800F029FF05E09B
:101880003021206800F024FF00E000BF00BF0120ED
:1018900084F83D0000BF002084F83C0000BF00BF7A
:1018A00071E7704710B5044620680069C0F3400036
:1018B000D8B12068C068C0F34000B0B16FF002003A
:1018C00021680861012020772068806900F003000A
:1018D00018B12046FFF7E5FF05E0204600F012F9B9
:1018E000204600F085F90020207720680069C0F3C9
:1018F0008000D8B12068C068C0F38000B0B16FF03C
:10190000040021680861022020772068806900F4C3
:10191000407018B12046FFF7C4FF05E0204600F0F4
:10192000F1F8204600F064F9002020772068006973
:10193000C0F3C000D8B12068C068C0F3C000B0B127
:101940006FF0080021680861042020772068C069D2
:1019500000F0030018B12046FFF7A3FF05E0204682
:1019600000F0D0F8204600F043F9002020772068EE
:101970000069C0F30010D8B12068C068C0F300103F
:10198000B0B16FF01000216808610820207720684E
:10199000C06900F4407018B12046FFF782FF05E0EF
:1019A000204600F0AFF8204600F022F90020207712
:1019B0002068006900F0010058B12068C06800F09C
:1019C000010030B16FF0010021680861204600F08D
:1019D00010F920680069C0F3C01058B12068C068D1
:1019E000C0F3C01030B16FF080002168086120465C
:1019F000FFF750FE20680069C0F3801058B12068DE
:101A0000C068C0F3801030B16FF0400021680861F9
:101A1000204600F0EFF820680069C0F3401058B18C
:101A20002068C068C0F3401030B16FF0200021681A
:101A300008612046FFF72FFE10BD000010B586B0EC
:101A40000446002002900390049005902068B0F1B5
:101A5000804F17D100BF0C48806940F004000A494C
:101A600088610846806900F00400019000BF00BF53
:101A700002200290122003900220059002A9034840
:101A8000FEF756FC06B010BD0010024000080140F1
:101A900070B504460E46154600BF94F83C00012878
:101AA00001D1022070BD012084F83C0000BF02205B
:101AB00084F83D0035B1042D09D0082D0CD00C2D33
:101AC00014D10EE03146206800F00CFE0FE03146E4
:101AD000206800F039FE0AE03146206800F06CFE14
:101AE00005E03146206800F09DFE00E000BF00BF29
:101AF000012084F83D0000BF002084F83C0000BFB6
:101B000000BFCFE7704710B504460CB9012010BDE7
:101B100094F83D0028B9002084F83C00204600F0ED
:101B20000CF8022084F83D00211D206800F07CFDA7
:101B3000012084F83D000020E9E7704730B50446F5
:101B40000D4601222946206800F0A8FD0A492068B8
:101B5000884201D1012000E0002028B12068406CBB
:101B600040F40040216848642068006840F00100AB
:101B700021680860002030BD002C014030B50446CB
:101B80000D4600222946206800F088FD174920688C
:101B9000884201D1012000E0002090B100BF206800
:101BA000006A41F21111084050B92068006A89109A
:101BB000084028B92068406C20F40040216848643F
:101BC00000BF00BF2068006A41F21111084050B9FF
:101BD0002068006A8910084028B92068006820F051
:101BE00001002168086000BF002030BD002C0140CA
:101BF00070477047704700BFFEE730B50B460021C5
:101C000000BF16E00A24B4EB107F05D9302404EBA2
:101C1000107403F8114005E0412404EB10740A3CF1
:101C200003F81140000100254C00641C1D554C1C9C
:101C3000E1B29142E6DB30BD00B585B000200190F5
:101C400002900390049000BF2C48806940F010007F
:101C50002A4988610846806900F01000009000BFA2
:101C600000BF00BF0846806940F020008861084638
:101C7000806900F02000009000BF00BF00BF084650
:101C8000806940F0040088610846806900F0040023
:101C9000009000BF00BF00BF0846806940F0080008
:101CA00088610846806900F00800009000BF00BF0E
:101CB00000224FF400511248FEF7CCFC002205210F
:101CC0001048FEF7C7FC4FF400500190012002902D
:101CD000002003900220049001A90948FEF728FB88
:101CE0000520019011200290002003900220049012
:101CF00001A90448FEF71CFB05B000BD001002401E
:101D0000001001400008014000B58DB0002009908E
:101D10000A900B900C90079008901C216846FEF7E3
:101D20001AFA4FF08040204908604FF4E1504860B3
:101D300000211D4881600A21C160002101618021CC
:101D40008161FFF7DAFC08B1FEF7BFFA4FF480506B
:101D5000099009A91448FFF70BFD08B1FEF7B5FA81
:101D60001148FFF7D0FE08B1FEF7AFFA50200790F8
:101D70000020089007A90C48FFF78EFC08B1FEF779
:101D8000A4FA3020009000200190029004900422D8
:101D900069460548FFF77CFE08B1FEF796FA02484F
:101DA000FFF74CFE0DB000BD5402002010B500221C
:101DB0000D490E4801F055F908B1FEF786FA0C49B5
:101DC0000A4801F0B1FB08B1FEF77FFA094907485C
:101DD00000F07CFE08B1FEF778FA044801F06CFCD4
:101DE00008B1FEF772FA10BD18000020940200201E
:101DF000A4000020700000202DE9F04780460D4629
:101E00001646994600243C222046641C49490A543F
:101E10000B222046641C0A542046641C01F80080F2
:101E20002046641C0D54B8F1010F06D0B8F1020F22
:101E30002CD0B8F1030F78D150E07006020E204686
:101E4000641C3C490A542F4612E0F8B23A4909682A
:101E5000884702122046641C36490A54F8B23649B3
:101E600009688847C2B22046641C32490A547F1C64
:101E7000A819B842E9DC3E222046641C2D490A54C8
:101E8000A1B22C482D4A126890474FE07006020E0E
:101E90002046641C27490A542F4612E0F8B228490C
:101EA0000968884702122146641C22484254F8B24D
:101EB000234909688847C2B22046641C1D490A5458
:101EC0007F1CA819B842E9DC3E222146641C19484F
:101ED0004254A1B2194A1268904727E04946284661
:101EE000184A1268904702222046641C11490A547D
:101EF000284613490968884702122046641C0D4988
:101F00000A5428460E4909688847C2B22046641C14
:101F100008490A543E222046641C0A54A1B20548CE
:101F2000064A1268904701E0FFE700BF00BFBDE826
:101F3000F0870000A8010020000000200C00002015
:101F4000040000200800002000BFFEE730B5039C1D
:101F5000054D2860054D2960054D2A60054D2B6013
:101F6000054D2C6030BD0000000000200400002062
:101F7000080000200C000020100000202DE9F8438C
:101F80000025002669461B481B4A1268904770B31B
:101F900000240BE01748005D3C2800D1651C154863
:101FA000005D3E2800D1661E601CC4B200988442C9
:101FB000F0D3B5421BD20F48405D0B2817D1DFF894
:101FC00034C06F1D1CF807C0DFF828802F1D18F8DB
:101FD00007704CEA0723C446EF1C1CF80720AF1C0F
:101FE0001CF807106F1C1CF80700FFF705FFBDE881
:101FF000F8830000DA0100201000002010B502482C
:1020000000F015F810BD00004002002030B5039C20
:102010000025056041608260C360046130BD10B579
:1020200004460120A1688847E068804710BD016828
:10203000491C01607047704702480068C0F30220E5
:10204000704700000CED00E010B5002807DA0A0721
:10205000140E054A00F00F031B1FD45403E00A07B7
:10206000130E024A135410BD18ED00E000E400E026
:102070002DE9FC41054600240027002600200190A0
:1020800000900CE2BDF8040000F00F06002E7DD198
:10209000BDF8040000F0100088BB2868008848F6EE
:1020A0000F7108402968088005F128042868B0F8F5
:1020B0005010207801EBC000801C296801F5806178
:1020C00031F81000C0F30900E061E169606908447B
:1020D000606100212846FEF7B9FB95F8240000282E
:1020E000CFD0A0690028CCD195F8240040F0800022
:1020F0002968A1F84C00002085F82400CFE1FFE713
:1021000005F50A74286800880090BDF8000000F406
:10211000006018B32868B0F85010207801EBC000B8
:10212000801D296801F5806131F81000C0F30900B5
:10213000E061A18B8BB2A28805F22C41286802F0E5
:1021400028F928680088C0F30E0048F68F7108400F
:10215000296808802846FEF760FEA0E1BDF800006F
:1021600000F4004000288CD028680088C0F30E00DE
:1021700048F68F710840296808802868B0F8501028
:10218000207801EBC000801D296800E055E001F5D2
:10219000806131F81000C0F30900E061E06960B1CE
:1021A000B4F81CC01FFA8CF3A2886169286802F099
:1021B000F0F8E16960690844606100212846FEF793
:1021C00053FB2A6802F580622868B0F85000801D31
:1021D00002EB400122693E2A10D92269C2F34F1056
:1021E000227C02F01F020AB9421E90B24FF6FF7223
:1021F00002EA802242F400420A600DE02269C2F342
:102200004F00227C02F001020AB1421C90B24FF64C
:10221000FF7202EA80220A60296809884BF68F72F1
:1022200001EA020080F4805080F4005040F4004144
:1022300041F080012A68118031E17100286830F88E
:1022400011000090BDF8000000F4004000287CD090
:102250007100286830F81100C0F30E0048F68F7145
:1022600008407200296821F8120005F50A7000EB99
:102270004614A07AA8B92868B0F85010207801EB6D
:10228000C000801D296801F5806131F81000C0F39D
:102290000907EFB3A28861693B46286802F079F824
:1022A00044E021784900286830F8110000F48040AB
:1022B000A8B12868B0F85010207801EBC000801C4D
:1022C000296801F5806131F81000C0F30907DFB11A
:1022D000E28861693B46286802F05BF814E02868F0
:1022E000B0F85010207801EBC000801D296801F57E
:1022F000806131F81000C0F309072FB122896169AC
:102300003B46286802F045F821784900286800E03B
:102310000CE030F8110048F68F71084048F2C00117
:10232000084322785200296821F81200E0693844F5
:10233000E061606938446061A06910B12069B84209
:1023400004D921782846FEF78FFA05E0217828463F
:10235000D4E90523FEF73EFBBDF8000000F0800045
:1023600000287CD005F1280000EB46147100286895
:1023700030F8110048F60F7108407200296821F802
:102380001200A07AD0B92868B0F85010207801EB7C
:10239000C000801C296801F5806131F81000C0F38D
:1023A0000900E061E069E8B3B4F81CC01FFA8CF3DF
:1023B000A2886169286802F027F84EE02178490078
:1023C000286830F8110000F04000D0B12868B0F85B
:1023D0005010207801EBC000801C296801F5806155
:1023E00031F81000C0F30900E061E06928B3B4F8E7
:1023F0001CC01FFA8CF3E2886169286802F004F8B7
:102400001BE02868B0F85010207801EBC000801D58
:10241000296801F5806131F81000C0F30900E0611E
:10242000E06900E019E040B1B4F81CC01FFA8CF379
:1024300022896169286801F0E7FF2178490028684E
:1024400030F8110048F68F7108404CF280010843C3
:1024500022785200296821F81200286800E01EE066
:10246000B0F85010207801EBC000801C296801F5FD
:10247000806131F81000C0F30900E061E169606932
:1024800008446061A06920B921782846FEF7DEF98A
:1024900005E021782846D4E90523FEF7F9FA2868F3
:1024A000B0F84400019000F4004000287FF4EAAD49
:1024B000BDE8FC817047000008B508490968C908F3
:1024C0004FF47A72B1FBF2F14143009100BF00BFBB
:1024D00000994A1E00920029F9D108BD9000002001
:1024E0007047000070B505460DB9002400E00124D6
:1024F000224601210148FEF7ADF870BD00080140F9
:1025000070B505460DB9002400E0012422460421DF
:102510000148FEF79FF870BD0008014002460248DE
:1025200020F81210012070470C02002010B5FEF7B1
:102530009DF810BD00B593B0282109A8FDF70BFE4A
:10254000142104A8FDF707FE0020009001900290DE
:1025500003900120099000040A9000200B900120B4
:102560000D9002201090C10311914FF4E0111291CF
:1025700009A8FEF755FE08B1FDF7A7FE0F2004904D
:1025800002200590002006904FF480600790002004
:102590000890022104A8FEF711FD08B1FDF795FE91
:1025A00010200090002003906846FEF76FFC08B1F1
:1025B000FDF78BFE13B000BD1148006840F001002C
:1025C0000F490860084640680E4908400C494860B9
:1025D000084600680C490840094908600846006838
:1025E00020F4802008600846406820F4FE0048601F
:1025F0004FF41F008860C80304490860704700005A
:10260000001002400000FFF8FFFFF6FE08ED00E0BA
:1026100010B50348FFF746F902480068804710BD2F
:10262000540200208000002000220268184B9842CB
:1026300008D0B0F1804F05D0164B984202D0164B0F
:10264000984203D122F070024B681A43104B984213
:1026500008D0B0F1804F05D00E4B984202D00E4BFF
:10266000984203D122F44072CB681A4322F08002D0
:102670004B691A4302608B68C3620B688362044B28
:10268000984201D10B690363012343617047000045
:10269000002C0140000400400008004030B5002339
:1026A000012404FA01F3046A9C430462046A02FAF6
:1026B00001F52C43046230BD30B50C460021816821
:1026C00021F47F4142EA032525432943816030BD3F
:1026D0000A460021816821F0700142F00703194386
:1026E0008160704730B5002400220023056A25F080
:1026F00001050562026A4368846924F0700424F0CD
:1027000003040D682C4322F002028D682A430D4D0C
:10271000A84206D100BF22F00802CD682A4322F069
:102720000402084DA84207D123F4807323F40073F8
:102730004D692B438D692B43436084614D6845632C
:10274000026230BD002C014030B50024002200237D
:10275000056A25F010050562026A4368846924F45D
:10276000E04424F440740D6844EA052422F0200279
:102770008D6842EA05120F4DA84207D100BF22F032
:102780008002CD6842EA051222F04002094DA842BB
:1027900009D123F4806323F400634D6943EA850380
:1027A0008D6943EA8503436084614D6885630262F5
:1027B00030BD0000002C014030B500240022002371
:1027C000056A25F480750562026A4368C46924F0CD
:1027D000700424F003040D682C4322F400728D6809
:1027E00042EA05220E4DA84207D100BF22F4006242
:1027F000CD6842EA052222F48062094DA84209D13F
:1028000023F4805323F400534D6943EA05138D6983
:1028100043EA05134360C4614D68C563026230BD7D
:10282000002C014030B5002200230024056A25F465
:1028300080550562036A4468C26922F4E04222F4CA
:1028400040720D6842EA052223F400538D6843EA82
:102850000533074DA84204D124F480444D6944EA6D
:1028600085144460C2614D680564036230BD000098
:10287000002C014030B50B46144600210022026AAC
:10288000056A25F001050562816921F0F00141EA40
:10289000041122F00A021A438161026230BD30B590
:1028A0000B46144600210022056A25F0100505623A
:1028B0008169026A21F4704141EA043122F0A002E8
:1028C00042EA03128161026230BD000010B50421AA
:1028D0000148FFF733F910BD5402002010B5042160
:1028E0000148FFF74BF910BD5402002002460B4689
:1028F000D2F81812D2F8180218B10020C1F8140248
:1029000070470220FCE770B504460E46D4F8185212
:102910003146204600F094FCC5F80C02D4F81802A9
:1029200048B1D5F80402D4F81C12CA6805F5037141
:102930009047002070BD0220FCE770B504460E46AB
:1029400000258121204600F0B8FB0121204600F03F
:10295000B4FB8221204600F0B0FBD4F8180250B13D
:10296000D4F81C1248688047D4F8180200F0B4FF6D
:102970000020C4F81802284670BD70B50546D5F889
:102980001842D5F81C0278B194F80002FF280BD049
:1029900094F8012294F80002D5F81C128B682146A5
:1029A0009847FF2084F80002002070BD01460A20ED
:1029B000088001487047000098000020014643202D
:1029C0000880014870470000200100200146432094
:1029D0000880014870470000DC00002001464320C9
:1029E0000880014870470000640100202DE9F04193
:1029F00004460F460026207C70B94FF40073022273
:102A00008121204600F080FC4FF400730222012156
:102A1000204600F079FC0BE0402302228121204671
:102A200000F072FC402302220121204600F06CFCE1
:102A3000082303228221204600F066FC4FF4077031
:102A400000F04CFFC4F81802D4F8180208B90126A7
:102A50001CE0D4F81852D4F81C12086880470020F3
:102A6000C5F81402C5F81802207C40B94FF4007371
:102A700001212046D5F8042200F05EFC06E0402348
:102A800001212046D5F8042200F056FC3046BDE86E
:102A9000F08170B50446D4F81852D4F8180298B1F1
:102AA000207C40B94FF4007301212046D5F8042260
:102AB00000F042FC06E0402301212046D5F8042224
:102AC00000F03AFC002070BD0220FCE70246022024
:102AD00011B1C2F81C12002070470246D2F8183219
:102AE000C3F804120020704710B50346D3F818420B
:102AF000C4F80812C4F81022002010BD70B50546B5
:102B00000C46D5F81862207800F0600040B3202809
:102B100035D1E088E0B1207800F0800060B1E28833
:102B20006078D5F81C128B6831469847E2883146A8
:102B3000284600F0B9F812E0607886F80002A07923
:102B400086F80102E2883146284600F08CF806E05B
:102B50006078D5F81C1200228B68214698470FE058
:102B600060780A2802D00B2807D105E00122064927
:102B7000284600F099F800E000BF00BF00BF00BF8A
:102B800000BF002070BD0000A701002070B5054601
:102B9000D5F81842D5F8180290B1D4F8140268B9E3
:102BA0000120C4F81402B4F8100283B2812128462F
:102BB000D4F8082200F08CFC002070BD0120FCE756
:102BC0000220FAE770B504460D46D4F814022946EF
:102BD000426820469047002070BD70B504460D46FF
:102BE00094F8FC01022802D0032811D100E000BFB4
:102BF000688801280BD10020C4F80402D4F814021C
:102C00002946826820469047204600F05EF804E09E
:102C10002946204600F01BF800BF00BF70BD70B50C
:102C200006460C4615462B4622460021304600F04B
:102C300083FB002070BD70B506460C4615462B463A
:102C400022460021304600F043FC002070BD70B5E4
:102C500004460D468021204600F00EFC002120464F
:102C600000F00AFC70BD70B504460E461546032000
:102C7000C4F8F4014FF484700551001D05512B4632
:102C800032460021204600F057FB002070BD10B5F1
:102C900004460520C4F8F40100231A4619462046CC
:102CA00000F04AFB002010BD70B504460E461546E4
:102CB0000220C4F8F401A561E5612B4632460021EB
:102CC000204600F005FC002070BD10B5044604202D
:102CD000C4F8F40100231A461946204600F0F8FB18
:102CE000002010BD70B505460C462DB92246064998
:102CF00006A000F077F904E02246034903A000F0A3
:102D000071F9014870BD0000380B00204344432096
:102D1000436F6E6669670000024612200880014812
:102D2000704700003400002070B505460C462DB9F0
:102D30002246064906A000F055F904E02246034960
:102D400003A000F04FF9014870BD0000380B0020CF
:102D500043444320496E74657266616365000000F8
:102D60000246042008800148704700004800002007
:102D700070B505460C462246024903A000F032F920
:102D8000004870BD380B002053544D6963726F6565
:102D90006C656374726F6E696373000070B505468D
:102DA0000C462DB92246064906A000F01BF904E0A6
:102DB0002246034903A000F015F9014870BD000048
:102DC000380B002053544D333220566972747561AC
:102DD0006C20436F6D506F727400000070B5054633
:102DE0000C461A202080FDF789FA014870BD0000CA
:102DF0004C00002070B504460D46E888012804D038
:102E000029462046FFF723FF1BE094F8FC01022827
:102E100002D003280FD108E00020A060012204F1B5
:102E200008012046FFF740FF0AE00122211D20464D
:102E3000FFF73AFF04E029462046FFF708FF00BFEE
:102E400000BF70BDF8B504460E4670880012082811
:102E50007FD2DFE800F07E040C207E7E5F6D207C58
:102E6000D4F810120A6869469047054676E0207C3F
:102E700040B9D4F81402816A6846884705460221A1
:102E8000697007E0D4F81402C16A684688470546AD
:102E90000221697062E0B078062834D2DFE800F0E1
:102EA000030B131B232B207CD4F810124A686946AD
:102EB000904705462CE0207CD4F810128A686946B9
:102EC0009047054624E0207CD4F81012CA68694671
:102ED000904705461CE0207CD4F810120A69694628
:102EE0009047054614E0207CD4F810124A696946E0
:102EF000904705460CE0207CD4F810128A69694698
:102F00009047054604E031462046FFF7A0FEF8BD95
:102F100000BF23E0207C30B9D4F81402416B68462E
:102F2000884705461AE031462046FFF790FEEEE757
:102F3000207C48B9D4F81402016B684688470546DE
:102F4000072169700AE004E031462046FFF77FFE62
:102F5000DDE731462046FFF77AFED8E700BFBDF82F
:102F6000000088B1F08878B1F088BDF80010884280
:102F700002DDBDF8000000E0F0880090BDF8002000
:102F800029462046FFF790FE00BFC0E7014600201B
:102F900002E0421CD0B2491C0A78002AF9D17047DD
:102FA00070B504460D4694F8FC01022802D00328AF
:102FB00011D100E000BF0120E060D4F8040218B194
:102FC000E06840F00200E060022204F10C012046BB
:102FD000FFF76AFE04E029462046FFF738FE00BFEF
:102FE00000BF70BD2DE9F04104460D46174600268E
:102FF000FCB12046FFF7CAFF022101EB40003880F8
:103000003A783046711CCEB22A5403223046711CE5
:10301000CEB22A540AE014F8012B3046711CCEB20D
:103020002A5400223046711CCEB22A54207800283F
:10303000F1D1BDE8F0810146002031B1012906D06F
:10304000022906D0032908D105E0002007E002206C
:1030500005E0012003E0022001E0022000BF00BFE4
:10306000704770B504460D4616460CB9022070BD77
:10307000D4F8140210B10020C4F814020DB1C4F841
:103080001052012084F8FC012670204600F0E2F87E
:103090000020ECE72DE9F04104460D46002600270C
:1030A0002946D4F82002FDF71FFC06463046FFF7FC
:1030B000C2FF07463846BDE8F0812DE9F0410446DD
:1030C0000D46002600272946D4F82002FDF7DAFB3A
:1030D00006463046FFF7AFFF07463846BDE8F081A9
:1030E0002DE9F04104460E461746002E54D104F156
:1030F0001405D4F8F401022843D1D5E9020188422D
:1031000010D9D5E90201401AA860288982B239464F
:103110002046FFF790FD00231A461946204600F08E
:103120000BF92EE0E9686868B0FBF1F201FB1200D0
:10313000B8B9E9686868884213D36868D4F8F811A8
:1031400088420ED2002211462046FFF774FD00206F
:10315000C4F8F80100231A461946204600F0ECF89E
:103160000FE0D4F81402C06840B194F8FC010328C1
:1031700004D1D4F81402C168204688472046FFF7DE
:1031800086FD94F80002012814D1204600F0D4F9FD
:10319000002084F800020DE0D4F81402406948B120
:1031A00094F8FC01032805D1D4F814023146426991
:1031B000204690470020BDE8F0812DE9F04105460A
:1031C0000E4617465EBB05F58274D5F8F401032858
:1031D00033D1D4E90201884210D9D4E90201401A5E
:1031E000A060D4E90201884201D2A06800E0E06852
:1031F00082B239462846FFF712FD1EE0D5F81402C8
:10320000006940B195F8FC01032804D1D5F81402F7
:103210000169284688472846FFF757FD0DE0D5F895
:103220001402806948B195F8FC01032805D1D5F84E
:10323000140231468269284690470020BDE8F0819B
:1032400070B504460D462946D4F82002FDF77DFBF3
:1032500070BD000010B504461D48C0F85C44C4F8B9
:1032600020021C481A4908600820486002211848BA
:10327000816000218161C1610162FDF7E3FC08B159
:10328000FDF723F804F5087418230022114620687E
:10329000FDF7BCFA5823002280212068FDF7B6FA1A
:1032A000C023002281212068FDF7B0FA4FF4887313
:1032B000002201212068FDF7A9FA2068A4F508740E
:1032C0004FF4807300228221FDF7A0FA002010BD88
:1032D000B8040020005C004010B50246D2F820324D
:1032E00001F08000802807D101F07F0403F128005D
:1032F00000EB4410807810BD01F07F0403F50A70E4
:1033000000EB44108078F6E72DE9F04704460F46BD
:1033100015461E464FF00008C1462B463246394638
:10332000D4F82002FDF71BFB80464046FFF783FEE2
:1033300081464846BDE8F0872DE9F04704460D4632
:1033400016461F464FF00008C1463B463246294606
:10335000D4F82002FDF73EFB80464046FFF76BFEA7
:1033600081464846BDE8F08710B504464023002258
:1033700011462046FFF7C8FF40214FF488700151E5
:103380004023002280212046FFF7BEFF402121621A
:10339000012084F8FC01D4F8180228B12179D4F86E
:1033A0001402426820469047002010BD014691F863
:1033B000FD0181F8FC010020704710B5044694F827
:1033C000FC01032808D1D4F81402C06920B1D4F854
:1033D0001402C16920468847002010BD02461174BE
:1033E000002070472DE9F04104460D4600260027D5
:1033F0002946D4F82002FDF7F5FC06463046FFF7D3
:103400001AFE07463846BDE8F08170B504460D4601
:10341000294604F5027000F073F80120C4F8F401A5
:1034200040F20E20005BC4F8F80194F8080200F0A6
:103430001F0020B1012808D0022812D10BE004F5AA
:103440000271204600F03FF913E004F502712046B6
:1034500000F01DFA0DE004F50271204600F06CF951
:1034600007E094F8080200F08001204600F004F81C
:1034700000BF00BF002070BD2DE9F04104460D469D
:10348000002600272946D4F82002FDF7C8FA064690
:103490003046FFF7D0FD07463846BDE8F08170B5ED
:1034A000044600250026D4F82002FDF7BFFC05469F
:1034B0002846FFF7C0FD0646304670BD014691F82C
:1034C000FC0181F8FD01042081F8FC010020704717
:1034D0002DE9F04704460D4616461F464FF00008FA
:1034E000C1463B4632462946D4F82002FDF7D0FAC1
:1034F00080464046FFF79FFD81464846BDE8F0877D
:103500000A7802704A7842708B78CA7803EB0222FC
:1035100042800B794A7903EB022282808B79CA7947
:1035200003EB0222C28070470246002011B1C2F8AC
:10353000141200E00220704701460020704770B569
:1035400004460D46A888F8B9E888E8B9A87800F0DC
:103550007F0694F8FC01032804D129462046FFF792
:1035600076FB15E084F8FE6131462046FFF73AFF0E
:103570002046FFF7AAFB1EB1022084F8FC0107E0F9
:10358000012084F8FC0103E029462046FFF75FFB99
:1035900070BD70B504460D460226D4F8140238B149
:1035A000D4F81402294602682046904700B9002644
:1035B000304670BD70B504460D46A8783449087091
:1035C00008460078012804DD29462046FFF73FFB26
:1035D0005BE094F8FC01022802D003284FD11CE0E4
:1035E0002B480078A8B12A4800786060032084F84E
:1035F000FC01274801782046FFF7CBFF022804D1C1
:1036000029462046FFF723FB70BD2046FFF75DFBF0
:1036100002E02046FFF759FB36E01D48007870B9FC
:10362000022084F8FC011A4800786060184801788C
:103630002046FFF7C7FA2046FFF747FB1EE0144974
:1036400009786068884216D021792046FFF7BAFAD7
:103650000F48007860600E4801782046FFF799FF18
:10366000022804D129462046FFF7F1FACCE720468C
:10367000FFF72BFB02E02046FFF727FB04E029467B
:103680002046FFF7E4FA00BF00BF00BFBCE7000020
:103690009400002070B504460D46688801280AD1C0
:1036A000C4F80402D4F814022946826820469047E0
:1036B0002046FFF70AFB70BD10B504462046FFF711
:1036C000EEFE002010BD70B505460C460026607861
:1036D0000A2829D2DFE800F01923281E280A052825
:1036E000140F21462846FFF7ADFB22E0214628466D
:1036F000FFF725FF1DE021462846FFF75BFF18E096
:1037000021462846FFF776FB13E021462846FFF7BF
:1037100047FC0EE021462846FFF7BCFF09E02146A2
:103720002846FFF75AFA04E021462846FFF78FFAA9
:1037300000BF00BF304670BD2DE9F04105460E4682
:103740004FF000083479307800F06000202808D16C
:10375000D5F8140231468268284690470020BDE81B
:10376000F0817078002855D001282AD003287AD11A
:1037700095F8FC01022802D003281BD107E02CB1E8
:10378000802C03D021462846FFF776FE17E070888C
:1037900030B92CB1802C03D021462846FFF76CFEAF
:1037A000D5F8140231468268284690472846FFF72C
:1037B0008CFA04E031462846FFF749FA00BF00BF03
:1037C00062E095F8FC01022802D003281BD107E033
:1037D0002CB1802C03D021462846FFF74DFE17E080
:1037E000708878B904F07F0048B121462846FFF779
:1037F00051FCD5F814023146826828469047284685
:10380000FFF763FA04E031462846FFF720FA00BFCD
:1038100000BF39E095F8FC01022802D003282BD123
:1038200007E004F07F0018B121462846FFF724FE88
:1038300027E004F08000802806D104F07F0105F124
:10384000140000EB011005E004F07F0105F5827023
:1038500000EB0110074621462846FFF73DFD18B151
:103860000120386002E00EE0002038600222394674
:103870002846FFF719FA04E031462846FFF7E7F932
:1038800000BF00BF00E000BF00BF404667E770B563
:1038900004460D46002694F8FC01032814D128792B
:1038A00001280CDCD4F8140229468268204690478F
:1038B000E88840B93EB92046FFF707FA03E02946F9
:1038C0002046FFF7C4F904E029462046FFF7BFF978
:1038D00000BF00BF002070BD7047000001460148D6
:1038E000704700001809002010B50246C87830B1B2
:1038F00001282CD0022810D0032836D119E00878EE
:10390000400032F8100048F68F13184040F4007061
:103910000B785B0022F8130028E00878400032F8AA
:10392000100048F68F1318400B785B0022F8130044
:103930001CE00878400032F8100048F68F13184059
:1039400040F4C0600B785B0022F813000EE00878AA
:10395000400032F8100048F68F13184040F48060A1
:103960000B785B0022F8130000E000BF00BF08786E
:10397000400032F8100048F68F73184048F2800378
:1039800018430B7818435B0022F81300887A00284C
:103990007DD1487898B3888840104400B2F8503000
:1039A000087803EBC00002F5806343F81040087804
:1039B000400032F8100000F0400068B10878400084
:1039C00032F8100048F68F73184048F2C0031843CD
:1039D0000B785B0022F813000B785B0032F8133091
:1039E00048F6BF7403EA040080F0200040F400436E
:1039F00043F080030C78640022F8143047E1FFE7BD
:103A0000888840104400B2F85030087803EBC000BA
:103A1000001D02F5806343F81040B2F8504008786A
:103A200004EBC000801D1C4604EB40030C693E2CD7
:103A300010D90C69C4F34F100C7C04F01F040CB9AE
:103A4000441EA0B24FF6FF7404EA802444F40044FC
:103A50001C600DE00C69C4F34F000C7C04F0010401
:103A60000CB1441CA0B24FF6FF7404EA80241C6021
:103A70000878400032F8100000F4804078B10878EF
:103A8000400032F8100048F68F73184000E01BE049
:103A90004CF2800318430B785B0022F813000B787C
:103AA0005B0032F813304BF68F7403EA040080F4A5
:103AB000805080F4005040F4004343F080030C78C1
:103AC000640022F81430E2E00878400032F8100078
:103AD00040F4807048F68F73184048F28003184312
:103AE0000B785B0022F81300C88840104400B2F83D
:103AF0005030087803EBC00002F5806343F81040B3
:103B0000088940104400B2F85030087803EBC00038
:103B1000001D02F5806343F810404878F0BB087838
:103B2000400032F8100000F4804068B1087840008E
:103B300032F8100048F68F7318404CF28003184397
:103B40000B785B0022F813000878400032F8100070
:103B500000F0400068B10878400032F8100048F6E4
:103B60008F73184048F2C00318430B785B0022F8AB
:103B700013000878400032F8100048F68F731840A0
:103B800048F2C00318430B785B0022F813000B784F
:103B90005B0032F813304BF68F7400E01EE003EA4E
:103BA000040080F4805080F4005040F4004343F05F
:103BB00080030C78640022F814300B785B0032F834
:103BC000133048F6BF7403EA040040F4004343F0A6
:103BD00080030C78640022F8143058E00878400024
:103BE00032F8100000F4804068B10878400032F8E4
:103BF000100048F68F7318404CF2800318430B787E
:103C00005B0022F813000878400032F8100000F042
:103C1000400068B10878400032F8100048F68F7311
:103C2000184048F2C00318430B785B0022F81300D9
:103C30000878400032F8100048F68F7318404CF2B4
:103C4000800318430B785B0022F813000B785B00AD
:103C500032F8133048F6BF7403EA040040F400431E
:103C600043F080030C78640022F814300B785B007A
:103C700032F813304BF68F7403EA040040F400432B
:103C800043F080030C78640022F8143000BF002059
:103C900010BD10B50446002010BD10B50246887A4C
:103CA00000284DD1487828B30878400032F8100039
:103CB00000F0400068B10878400032F8100048F683
:103CC0008F73184048F2C00318430B785B0022F84A
:103CD00013000B785B0032F8133048F6BF7403EA28
:103CE000040040F4004343F080030C78640022F8A1
:103CF0001430DAE00878400032F8100000F4804018
:103D000068B10878400032F8100048F68F73184008
:103D10004CF2800318430B785B0022F813000B78F9
:103D20005B0032F813304BF68F7403EA040040F462
:103D3000004343F080030C78640022F81430B4E0B0
:103D40004878002858D10878400032F8100000F474
:103D5000804068B10878400032F8100048F68F7350
:103D600018404CF2800318430B785B0022F81300D4
:103D70000878400032F8100000F0400068B1087880
:103D8000400032F8100048F68F73184048F2C00324
:103D900018430B785B0022F813000878400032F8D3
:103DA000100048F68F73184048F2C00318430B7890
:103DB0005B0022F813000B785B0032F813304BF6EF
:103DC0008F7403EA040040F4004343F080030C784E
:103DD000640022F814300B785B0032F8133048F698
:103DE000BF7403EA040040F4004343F080030C78FE
:103DF000640022F8143058E00878400032F81000CF
:103E000000F4804068B10878400032F8100048F6AD
:103E10008F7318404CF2800318430B785B0022F834
:103E200013000878400032F8100000F0400068B13C
:103E30000878400032F8100048F68F73184048F2B6
:103E4000C00318430B785B0022F813000878400089
:103E500032F8100048F68F7318404CF28003184374
:103E60000B785B0022F813000B785B0032F81330FC
:103E700048F6BF7403EA040040F4004343F08003B3
:103E80000C78640022F814300B785B0032F81330A1
:103E90004BF68F7403EA040040F4004343F08003C0
:103EA0000C78640022F8143000BF002010BD0146D9
:103EB0000020704701460020704710B504460120DD
:103EC00024F8400F00202080A0802082403C204623
:103ED00000F046FA002010BD014600224FF43D429A
:103EE000B1F840009043A1F840000020704702461E
:103EF0000020704710B50246487848B30878400063
:103F000032F8100000F0400068B10878400032F844
:103F1000100048F68F73184048F2C00318430B781E
:103F20005B0022F813000B785B0032F8133048F680
:103F3000BF7403EA040080F0100080F0200040F419
:103F4000004343F080030C78640022F8143029E029
:103F50000878400032F8100000F4804068B108781A
:103F6000400032F8100048F68F7318404CF280037E
:103F700018430B785B0022F813000B785B0032F8D3
:103F800013304BF68F7403EA040080F4805080F401
:103F9000005040F4004343F080030C78640022F8A2
:103FA000143000BF002010BD10B502460878A0B93B
:103FB0000B785B0032F813304BF6BF7403EA040051
:103FC00080F4805080F0100040F4004343F0800300
:103FD0000C78640022F8143027E0487890B10B7810
:103FE0005B0032F8133048F6BF7403EA040080F037
:103FF000100040F4004343F080030C78640022F882
:10400000143012E00B785B0032F813304BF68F74EB
:1040100003EA040080F4805040F4004343F080033E
:104020000C78640022F8143000BF002010BDF0B5F9
:1040300006460C460027A569607801287CD12169D5
:10404000A069884204D92569A069401BA06102E0EB
:10405000A5690020A061A07A80B9ABB2A2883046E1
:10406000616900F0D1F9B6F85010207801EBC0007A
:10407000801C06F5806141F81050A1E020784000D6
:1040800036F8100000F04000C0B3607838BBB6F8D6
:104090005020207802EBC000801D06F5806202EB04
:1040A00040013E2D0ED9C5F34F1005F01F020AB98D
:1040B000421E90B24FF6FF7202EA802242F40042A2
:1040C0000A600BE0C5F34F0005F001020AB1421C83
:1040D00090B24FF6FF7202EA80220A600CE060782C
:1040E000012809D1B6F85010207801EBC000801CDF
:1040F00006F5806141F81050278939E0FFE76078C4
:1041000040BBB6F85020207802EBC000801C06F5BA
:10411000806202EB40013E2D0FD9C5F34F1005F030
:104120001F020AB9421E90B24FF6FF7202EA8022C5
:1041300042F400420A600CE057E0C5F34F0005F07E
:1041400001020AB1421C90B24FF6FF7202EA8022CD
:104150000A600CE06078012809D1B6F85010207888
:1041600001EBC000801C06F5806141F81050E78823
:10417000ABB23A463046616900F046F9607870B9F2
:104180002078400036F8100048F68F71084048F259
:10419000C00108432178490026F8110010E060783A
:1041A00001280DD12078400036F8100048F68F71B4
:1041B00008404CF2800108432178490026F811009C
:1041C0002178490036F8111048F6BF7201EA020062
:1041D00080F0100080F0200040F4004141F08001A8
:1041E0002278520026F81210B8E02169A0698842AE
:1041F00004D92569A069401BA06102E0A5690020DF
:10420000A061A07A38BBB6F85020207802EBC0003D
:10421000801D06F5806202EB40013E2D0ED9C5F3EC
:104220004F1005F01F020AB9421E90B24FF6FF72FE
:1042300002EA802242F400420A600BE0C5F34F001C
:1042400005F001020AB1421C90B24FF6FF7202EA79
:1042500080220A606DE0607838BBB6F85020207884
:1042600002EBC000801C06F5806202EB40013E2D8F
:104270000ED9C5F34F1005F01F020AB9421E90B2C5
:104280004FF6FF7202EA802242F400420A600BE01D
:10429000C5F34F0005F001020AB1421C90B24FF67F
:1042A000FF7202EA80220A600CE06078012809D1DE
:1042B000B6F85010207801EBC000801C06F5806134
:1042C00041F81050607838BBB6F85020207802EBE7
:1042D000C000801D06F5806202EB40013E2D0ED924
:1042E000C5F34F1005F01F020AB9421E90B24FF6F7
:1042F000FF7202EA802242F400420A600BE0C5F33A
:104300004F0005F001020AB1421C90B24FF6FF7255
:1043100002EA80220A600CE06078012809D1B6F830
:104320005010207801EBC000801C06F5806141F838
:1043300010502178490036F811104BF68F7201EABF
:10434000020080F4805080F4005040F4004141F0BD
:1043500080012278520026F8121000BF0020F0BD24
:10436000014600224FF43F42B1F840001043A1F84B
:10437000400000207047000010B50248FCF7AEFB7B
:1043800010BD0000B804002001460020B1F8440030
:104390007047F0B55F1C7E100024002500EB42073B
:1043A00007F58065344605E035F804CB21F801CBEC
:1043B000491C641E002CF7D1F0BD000070B5054605
:1043C0000C460948007868B1002007490870074882
:1043D000006820600548064902682846FBF7A2FEEF
:1043E000012070BD0020FCE7680000206C00002068
:1043F000380D0020024600207047024611B9802087
:10440000A2F84C00002070472DE9F041044603F16A
:1044100001084FEA68070025AC460026002004EB9F
:10442000420808F580603D460BE091F800C0491C49
:1044300091F800804CEA082620F8026B801C491C89
:104440006D1E002DF1D1BDE8F08100BFFEE702E056
:1044500008C8121F08C1002AFAD17047704700200F
:1044600001E001C1121F002AFBD1704708B5FCF71B
:1044700009F9FEF75FF8FDF7DFFBFDF745FCFDF7F7
:1044800095FC0F480F4B104A104900901048FDF75B
:10449000BDFD1048104B114A114900901148FDF71D
:1044A00055FD1148114908600948FDF7B8FD06E0BF
:1044B000FDF764FD4FF400510D48FCF7C7F8F7E72E
:1044C000DD280008CD28000801250008E5240008A3
:1044D00040020020BD430008910200081D2500088D
:1044E000E5020008CD020008FD1F00088000002042
:1044F0000010014000000000000000000102030461
:104500000607080900000000010203042C4500080A
:1045100000000020A801000090010008F4450008F8
:10452000A8010020F80F00005E44000801181319CC
:104530002D1B0861041A71041A9D041ADD0413E589
:104540002C1B0829081312011402020216408304CE
:1045500040572602010203010722040309041A033B
:104560001335021B082F0413EB011B085908813275
:104570001019472144A24A04130A0632022A4014A1
:1045800013ED291B083B044BFD2A301A7B0C13ED5D
:10459000281B080708C11ACD101ABD041ADD041A19
:1045A000AD041C0902439F111CC03209531B0102B8
:1045B0000B1305241610010524011009010424021F
:1045C00002052406170107058203081C100904D5FB
:1045D000320A1D070501027B2C07058107110937E7
:1045E000442A40072A8107112B0907440A22044460
:0445F0000A16FF4464
:04000005080000ED02
:00000001FF
